:100000000C9412020C94C6080C949B080C94700873
:100010000C9445080C941A080C94EF070C94C40730
:100020000C9499070C9443020C9443020C944302E1
:100030000C9443020C9443020C9443020C9443022C
:100040000C9443020C9443020C9443020C9443021C
:100050000C9443020C9443020C9443020C94CF0B77
:100060000C9443020C946F090C9445090C944302C0
:100070000C9443020C9443020C9443020C944302EC
:100080000C9443020C9443020C9443020C944302DC
:100090000C941B090C94F1080C9443020C94430239
:1000A0000C9443020C9443020C9443020C944302BC
:1000B0000C9443020C9443020C9443020C944302AC
:1000C0000C9443020C9443020C9443020C9443029C
:1000D0000C9443020C9443020C9443020C9443028C
:1000E0000C944302E20AE50AD40AD80ADE0A1C0B81
:1000F000E90AED0AF30AF70AFB0A010B050B090BE3
:100100001C0B0F0B130B170B08000000BE922449A9
:10011000123EABAAAA2ABECDCCCC4C3E0000008039
:10012000BEABAAAAAA3E00000000BF000000803FAC
:100130000000000000084178D3BB4387D1133D196C
:100140000E3CC3BD4282AD2B3E68EC8276BED98F99
:10015000E1A93E4C80EFFFBE01C4FF7F3F000000DD
:10016000000007634236B79BD8A71A39685618AE05
:10017000BAAB558C1D3CB7CC5763BD6DEDFD753EDC
:10018000F6177231BF000000803F0C9446020C94B9
:100190000F0B0C94E20A0C94B1020C94130B0C9408
:1001A000F5030C9445020C94BE040C94F30A0C94D1
:1001B000E50A0C94D80A0C9447030C9400030C94A1
:1001C00063120C941C0B0C94090B0C94BF020C943E
:1001D000010B0C94050B0C9415040C9441160C9413
:1001E00017040C94170B0C94DE0A0C94E90A0C9477
:1001F000AA030C94ED0A0C949E030C94F70A0C9439
:10020000FB0A0C94D40A0C949D020C948E02496E45
:10021000636F6D696E672071756572793A2000535E
:1002200074617274696E6720696E7465727161724F
:10023000706520696E746572666163652E2E2E008E
:100240002D2D2D2D2D2D2D2D2D2D2D2D2D2D2D2DDE
:100250002D2D2D2D2D2D2D2D2D2D2D2D2D2D2D2DCE
:100260002D2D2D2D2D2D2D2D2D2D2D2D007C205185
:10027000415250454449454D202D20436F6E6E65D7
:1002800063746564205461626C652053656E736F9E
:100290007220426F617264207C002D2D2D2D2D2D3A
:1002A0002D2D2D2D2D2D2D2D2D2D2D2D2D2D2D2D7E
:1002B0002D2D2D2D2D2D2D2D2D2D2D2D2D2D2D2D6E
:1002C0002D2D2D2D2D2D2D00476F7420616E206555
:1002D00076656E74003D3D53656E736F7273207268
:1002E0006F7574696E653D3D00444953434F4E4EF2
:1002F000454354454400434F4E4E45435445440006
:1003000000002100240027002A002D0030003300C7
:1003100001010000040107010A010000220025007C
:1003200028002B002E0031003400020100000501DE
:1003300008010B01000020002300260029002C00EA
:100340002F00320000010000030106010901000036
:100350000A0B02090C0D0E0807030401000000003F
:10036000000000000000000000000000000000008D
:10037000000000000000000000001211100000004A
:10038000000000000000000000000000000000006D
:100390000000000005050505070508080808020219
:1003A00002020A0A0808040404040101010101010F
:1003B00001010303030303030303040707070C0CF2
:1003C0000C0C0C0C0C0C02020202060606060606B9
:1003D00006060B0B0B0B0B0B0B0B0102102020085E
:1003E0000810204010204080020102010804020190
:1003F00001020408102040808040201008040201FF
:100400008004020180402010080402010804020157
:1004100001020408102040800102040810204080DE
:100420004116631211241FBECFEFD1E2DEBFCDBF54
:1004300000E00CBF13E0A0E0B2E0EAE8FBE300E07C
:100440000BBF02C007900D92AE34B107D9F726E07A
:10045000AEE4B3E001C01D92AE31B207E1F712E0A5
:10046000C1E1D2E000E006C021970109802FFE0122
:100470000E946A17C031D10780E00807A9F70E94DF
:1004800069120C94B31D0C9400000895CF92DF9272
:10049000EF92FF920F931F93CF93DF936C017A013A
:1004A0008B01C0E0D0E0CE15DF0589F0D8016D9159
:1004B0008D01D601ED91FC910190F081E02DC601F6
:1004C0001995892B11F47E0102C02196ECCFC7014A
:1004D000DF91CF911F910F91FF90EF90DF90CF9020
:1004E0000895FC01A089B1898C91A689B78982FD04
:1004F0000FC09C91818D8F5F8F73228D821749F081
:10050000218DDF01A20FB11D5D969C93818F08950F
:100510008C910895089580E090E00895FC01538D3A
:10052000448D252F30E0842F90E0821B930B5417CD
:1005300010F0CF96089501970895FC01918D828D5A
:10054000981761F0828DDF01A80FB11D5D968C9127
:10055000928D9F5F9F73928F90E008958FEF9FEF32
:100560000895FC01918D828D981731F0828DE80FEE
:10057000F11D858D90E008958FEF9FEF0895FC01A8
:10058000918D228D892F90E0805C9F4F821B910975
:100590008F739927089584E694E00E94BF0221E0BA
:1005A000892B09F420E0822F08958AE893E00E94C5
:1005B000BF0221E0892B09F420E0822F0895FC017D
:1005C000848DDF01A80FB11DA35ABF4F2C91848DDC
:1005D00090E001968F739927848FA689B7892C9311
:1005E000A089B1898C9180648C93938D848D9813AC
:1005F00006C00288F389E02D80818F7D8083089575
:10060000EF92FF920F931F93CF93DF93EC0181E062
:10061000888F9B8D8C8D981305C0E889F98980811E
:1006200085FD24C0F62E0B8D10E00F5F1F4F0F735A
:100630001127E02E8C8DE8120CC00FB607FCFACF04
:10064000E889F989808185FFF5CFCE010E94DF021C
:10065000F1CF8B8DFE01E80FF11DE35AFF4FF082C1
:100660000B8FEA89FB898081806207C0EE89FF8950
:100670006083E889F98980818064808381E090E0EB
:10068000DF91CF911F910F91FF90EF900895CF933D
:10069000DF93EC01888D8823C9F0EA89FB8980818A
:1006A00085FD05C0A889B9898C9186FD0FC00FB65C
:1006B00007FCF5CF808185FFF2CFA889B9898C919D
:1006C00085FFEDCFCE010E94DF02E7CFDF91CF9112
:1006D000089580E090E0892B21F00E94D5028111DD
:1006E00021C080E090E0892B21F00E94CB02811193
:1006F0001CC080E090E0892B41F080E090E0892BE5
:1007000021F00E940000811113C080E090E0892B4D
:10071000A1F080E090E0892B81F00E94000081111F
:100720000AC008950E940000DCCF0E940000E1CFC3
:100730000E940000EACF0C9400000895FC01ED5ED9
:10074000FE4F80819181DC01ED91FC910084F18567
:10075000E02D1994FC01ED5EFE4F80819181DC015A
:10076000ED91FC910280F381E02D1994FB0144810D
:100770005581FC01248135812417350778F080816B
:100780009181009759F0FB016081718161157105BC
:1007900029F00E94811C21E0892B09F020E0822FA2
:1007A0000895FC0124813581232B31F421E061156A
:1007B0007105A1F0FB0108C0FC01808191816115E8
:1007C000710531F421E0FC018081882339F005C0F6
:1007D0000E94711C21E0892B09F020E0822F0895EE
:1007E000FC01808191810C94DB1A0E94240E90936D
:1007F000500380934F030895CF93DF9300D01F924F
:10080000CDB7DEB749835A836B837C8324E030E025
:10081000AE014F5F5F4F61E20E94DC090F900F90C5
:100820000F900F90DF91CF9108950C94C30B8F928E
:100830009F92AF92BF92CF92DF92EF92FF920F936F
:100840001F93CF93DF936A01FC01ED5EFE4FC081E1
:10085000D1817B0100E010E00C151D0561F10E94C3
:10086000C30B688779878A879B87E881F98102842F
:10087000F385E02DCE01199597FF17C00E94C30B99
:1008800088849984AA84BB84DC01CB0188199909E6
:10089000AA09BB098C809D80AE80BF808815990510
:1008A000AA05BB0510F3680106C0F70181937F011B
:1008B0000F5F1F4FD1CFC601DF91CF911F910F91D5
:1008C000FF90EF90DF90CF90BF90AF909F908F9070
:1008D0000895EF92FF920F931F93CF93DF93EC0154
:1008E0007B018A0188819981009729F02A813B81C7
:1008F00024173507F8F4B8016F5F7F4F0E94731B10
:10090000009759F0998388831B830A832C813D814A
:10091000232B81F4FC0110820DC0888199810097FE
:1009200011F00E94DB1A198218821D821C821B8220
:100930001A8207C01D830C83B701888199810E94A8
:100940007A1CCE01DF91CF911F910F91FF90EF9014
:100950000895FC0111821082138212821582148282
:100960006115710551F0FB0101900020E9F7319705
:10097000AF01461B570B0C9469040895CF92DF9288
:10098000EF92FF920F931F93CF93DF93CDB7DEB714
:100990006E970FB6F894DEBF0FBECDBF8C017B0102
:1009A0008EE092E00E94B60DC7010E945F0D0E948A
:1009B000B20DB701CE0143960E94A90467E372E02D
:1009C000CE010D960E94A90461E472E0CE01079663
:1009D0000E94A904BE01635F7F4FCE0143960E942F
:1009E000B603882309F43EC22F89388D49895A8974
:1009F000BE016D5E7F4FCE0149960E94190C6AE4DC
:100A000072E0CE0101960E94A904BE016F5F7F4F84
:100A1000CE0149960E94B603882331F0FF24F39457
:100A20008D8D9E8D099709F0F12CCE0101960E94C3
:100A3000F003FF2009F484C08D8D9E8D099730F05E
:100A4000E98DFA8D309711F0808501C080E091E04A
:100A500090934E03833309F440C0B4F4813361F1C1
:100A6000823309F040C26091590370915A03072EF6
:100A7000000C880B990B0E94961C6B017C01109254
:100A80004E038EE592E0E2C1853309F448C0B4F12B
:100A9000863309F028C26091610370916203072ECA
:100AA000000C880B990B0E94961C6B017C01109224
:100AB0004E038AE892E0CAC16091570370915803CF
:100AC000072E000C880B990B0E94961C6B017C0171
:100AD00010924E0383E592E0B9C160915B0370917F
:100AE0005C03072E000C880B990B0E94961C6B016F
:100AF0007C0110924E0389E692E0A8C160915D03EB
:100B000070915E03072E000C880B990B0E94961CB7
:100B10006B017C0110924E0384E792E097C16091D3
:100B20005F0370916003072E000C880B990B0E94E5
:100B3000961C6B017C0110924E038FE792E086C1F8
:100B400065E972E0CE0101960E94A904BE016F5FC3
:100B50007F4FCE0149960E94B603882339F0FF24C7
:100B6000F3948D8D9E8D079709F0F12CCE0101969F
:100B70000E94F003FF2009F4AFC08D8D9E8D079772
:100B800030F0E98DFA8D309711F0868101C080E058
:100B900091E090934E03833309F444C02CF48133E5
:100BA00061F0823349F19FC1853309F467C00CF4C9
:100BB0004FC0863309F479C096C160915103662312
:100BC00091F0062E000C770B60537109072E000C74
:100BD000880B990B0E94961C6B017C0110924E03AE
:100BE0008CE992E033C14091270450912804609130
:100BF000290470912A0432C160915203662399F34B
:100C0000062E000C770B60537109072E000C880B21
:100C1000990B0E94961C6B017C0110924E0385EA91
:100C200092E014C1609153036623E9F2062E000C92
:100C3000770B60537109072E000C880B990B0E94EB
:100C4000961C6B017C0110924E038EEA92E0FEC06E
:100C500060915403662339F2062E000C770B605323
:100C60007109072E000C880B990B0E94961C6B01D2
:100C70007C0110924E0387EB92E0E8C0609155032F
:100C8000662309F4B0CF062E000C770B6053710970
:100C9000072E000C880B990B0E94961C6B017C019F
:100CA00010924E0380EC92E0D1C06091560366230F
:100CB00009F499CF062E000C770B60537109072EAB
:100CC000000C880B990B0E94961C6B017C01109202
:100CD0004E0389EC92E0BAC062ED72E0CE01499613
:100CE0000E94D103882359F080E090E00E94FB0D20
:100CF0000E94D30F6B017C018EED92E04FC06BEE32
:100D000072E0CE0149960E94D103882309F456C0AF
:100D100080E090E00E94FB0D0E94DC0E8823B1F180
:100D2000809152048B3041F188F18551823070F509
:100D300060914C0470E080E090E00E94941C20E000
:100D400030E040E853E40E94F51C6B017C01809187
:100D50004D04682F70E080E090E00E94961C9B019B
:100D6000AC01C701B6010E9487172DEC3CEC4CEC9E
:100D70005DE30E94F51C07C060914C0470E080E0C8
:100D800090E00E94941C6B017C0106C0C12CD12C08
:100D900080ECE82E8FE7F82E84EF92E00E9420107E
:100DA000C701B6010E942210A7019601C701B60132
:100DB0000E944019882309F44FC07DC067E173E0A9
:100DC000CE0149960E94D103882379F08EE394E006
:100DD0000E94E71020E030E048EC52E40E94F51C4D
:100DE0006B017C018EEF92E031C068E273E0CE01CE
:100DF00049960E94D103882309F475C080E394E0EA
:100E00000E94E71020E030EC4FE754E40E94F31713
:100E100020E030E44CE955E40E94F51C2DEC3CEC5C
:100E20004CE950E40E94F3170E94A8182EE83DE513
:100E300043E150E40E94F31720E030E040EA51E43F
:100E40000E94F51C6B017C0186E093E00E9420105B
:100E5000C701B6010E942210B701A601C8010E9475
:100E6000FC0344C0BE01695F7F4FCE0143960E94E0
:100E7000B603882309F43FC02F89388D4B855C85E4
:100E8000BE016D5E7F4FCE0149960E94190C6DE048
:100E900073E0CE0101960E94A904BE016F5F7F4FEF
:100EA000CE0149960E94B603F82ECE0101960E940B
:100EB000F003FF2021F0C8010E94500A17C06EE124
:100EC00073E0CE0101960E94A904BE016F5F7F4FBF
:100ED000CE0149960E94B603F82ECE0101960E94DB
:100EE000F003F110E8CFC8010E94850ACE014996AF
:100EF0000E94F00303C0C8010E94850ACE01079634
:100F00000E94F003CE010D960E94F003CE0143969D
:100F10000E94F0036E960FB6F894DEBF0FBECDBFF1
:100F2000DF91CF911F910F91FF90EF90DF90CF90C5
:100F300008951F920F920FB60F9211240BB60F92C5
:100F40002F933F934F935F936F937F938F939F93D1
:100F5000AF93BF93EF93FF93E0910E02F0910F02D6
:100F60001995FF91EF91BF91AF919F918F917F91D3
:100F70006F915F914F913F912F910F900BBE0F900A
:100F80000FBE0F901F9018951F920F920FB60F92E1
:100F900011240BB60F922F933F934F935F936F9350
:100FA0007F938F939F93AF93BF93EF93FF93E091C2
:100FB0000C02F0910D021995FF91EF91BF91AF9145
:100FC0009F918F917F916F915F914F913F912F9161
:100FD0000F900BBE0F900FBE0F901F9018951F9291
:100FE0000F920FB60F9211240BB60F922F933F93CF
:100FF0004F935F936F937F938F939F93AF93BF9321
:10100000EF93FF93E0910202F09103021995FF9193
:10101000EF91BF91AF919F918F917F916F915F9170
:101020004F913F912F910F900BBE0F900FBE0F90DD
:101030001F9018951F920F920FB60F9211240BB6A6
:101040000F922F933F934F935F936F937F938F9361
:101050009F93AF93BF93EF93FF93E0910002F091C2
:1010600001021995FF91EF91BF91AF919F918F91DF
:101070007F916F915F914F913F912F910F900BBE98
:101080000F900FBE0F901F9018951F920F920FB6E2
:101090000F9211240BB60F922F933F934F935F93B0
:1010A0006F937F938F939F93AF93BF93EF93FF9330
:1010B000E0910A02F0910B021995FF91EF91BF9117
:1010C000AF919F918F917F916F915F914F913F91E0
:1010D0002F910F900BBE0F900FBE0F901F90189581
:1010E0001F920F920FB60F9211240BB60F922F93EF
:1010F0003F934F935F936F937F938F939F93AF93A0
:10110000BF93EF93FF93E0910802F09109021995C4
:10111000FF91EF91BF91AF919F918F917F916F91CF
:101120005F914F913F912F910F900BBE0F900FBE8B
:101130000F901F9018951F920F920FB60F921124C7
:101140000BB60F922F933F934F935F936F937F93C1
:101150008F939F93AF93BF93EF93FF93E09106021A
:10116000F09107021995FF91EF91BF91AF919F9177
:101170008F917F916F915F914F913F912F910F9040
:101180000BBE0F900FBE0F901F9018951F920F92DD
:101190000FB60F9211240BB60F922F933F934F93DC
:1011A0005F936F937F938F939F93AF93BF93EF93CF
:1011B000FF93E0910402F09105021995FF91EF91E0
:1011C000BF91AF919F918F917F916F915F914F915F
:1011D0003F912F910F900BBE0F900FBE0F901F905D
:1011E00018951F920F920FB60F9211240BB60F9203
:1011F0002F933F934F935F936F937F938F939F931F
:10120000AF93BF93EF93FF9384E694E00E94DF02D5
:10121000FF91EF91BF91AF919F918F917F916F91CE
:101220005F914F913F912F910F900BBE0F900FBE8A
:101230000F901F9018951F920F920FB60F921124C6
:101240000BB60F922F933F934F935F936F937F93C0
:101250008F939F93AF93BF93EF93FF9384E694E0B4
:101260000E947102FF91EF91BF91AF919F918F9179
:101270007F916F915F914F913F912F910F900BBE96
:101280000F900FBE0F901F9018951F920F920FB6E0
:101290000F9211240BB60F922F933F934F935F93AE
:1012A0006F937F938F939F93AF93BF93EF93FF932E
:1012B0008AE893E00E94DF02FF91EF91BF91AF9126
:1012C0009F918F917F916F915F914F913F912F915E
:1012D0000F900BBE0F900FBE0F901F9018951F928E
:1012E0000F920FB60F9211240BB60F922F933F93CC
:1012F0004F935F936F937F938F939F93AF93BF931E
:10130000EF93FF938AE893E00E947102FF91EF91BF
:10131000BF91AF919F918F917F916F915F914F910D
:101320003F912F910F900BBE0F900FBE0F901F900B
:1013300018953FB7F8948091860390918703A09108
:101340008803B091890326B5A89B05C02F3F19F0EB
:101350000196A11DB11D3FBFBA2FA92F982F882735
:10136000820F911DA11DB11DBC01CD0142E0660F90
:10137000771F881F991F4A95D1F708950E945C1C1A
:10138000CF93DF931F92CDB7DEB7DC01ED91FC91D7
:101390000280F381E02D41E050E0BE016F5F7F4F9E
:1013A0001995019719F4898190E002C08FEF9FEFA2
:1013B0000F90DF91CF910895AF92BF92CF92DF92BD
:1013C000EF92FF920F931F93CF93DF9300D000D043
:1013D000CDB7DEB77C015A018901DE01119685E0A7
:1013E000FD0111928A95E9F781EB898382E48A8372
:1013F0006B832C83FA019A01200F311F80E0E217E2
:10140000F30719F091918927FACF8E839A81898108
:1014100089279B8189279C8189279D8189278D83A5
:10142000F70180819181FC012081318145E050E00C
:10143000BD01C701F90119956C01D701ED91FC912E
:101440000190F081E02DA801B501C7011995C80EE2
:10145000D91ED701ED91FC910190F081E02D41E082
:1014600050E0BE016A5F7F4FC7011995C80ED91EB3
:101470000A5F1F4F81E0C016D10609F080E0269672
:101480000FB6F894DEBF0FBECDBFDF91CF911F9195
:101490000F91FF90EF90DF90CF90BF90AF900895A5
:1014A00020E030E040E050E062E20C94DC098F92F2
:1014B0009F92AF92BF92CF92DF92EF92FF920F93E3
:1014C0001F934A015B0168017901DC01ED91FC91F8
:1014D0000680F781E02D1995DC01CB018819990967
:1014E000AA09BB0921E0C816D906EA06FB0608F0DE
:1014F00020E0822F1F910F91FF90EF90DF90CF900F
:10150000BF90AF909F908F9008958F929F92AF92CF
:10151000BF92EF92FF920F931F93CF93DF93EC0153
:1015200084E0E82EF12C81E0E81AF10829F120E0AE
:1015300030E040E050E063E2CE010E94DC09E88147
:10154000F9810680F781E02DCE0119954B015C01F0
:1015500008E813E120E030E0B501A401CE010E94CB
:10156000570A8111E0CFCE010E942D118A81882374
:1015700079F38B81823161F7DF91CF911F910F91C8
:10158000FF90EF90BF90AF909F908F90089590E064
:10159000FC013197E231F10508F04EC08827EE5882
:1015A000FF4F8F4F0C946A17809180008F7703C094
:1015B000809180008F7D80938000089580918000CD
:1015C000877FF9CF84B58F7702C084B58F7D84BDC6
:1015D00008958091B0008F7703C08091B0008F7D17
:1015E0008093B0000895809190008F7707C080911C
:1015F00090008F7D03C080919000877F8093900042
:1016000008958091A0008F7707C08091A0008F7D02
:1016100003C08091A000877F8093A00008958091EF
:1016200020018F7707C0809120018F7D03C08091BA
:101630002001877F8093200108951F93CF93DF932C
:10164000282F30E0F901E25BFC4F8491F901E6526A
:10165000FC4FD491F901EC56FC4FC491CC23C9F056
:10166000162F81110E94C70AEC2FF0E0EE0FFF1F2A
:10167000E65EFC4FA591B4918FB7F894111105C0A7
:101680009C91ED2FE095E92302C0EC91ED2BEC93BA
:101690008FBFDF91CF911F910895CF93DF9390E09B
:1016A000FC01E652FC4F2491FC01EC56FC4F849166
:1016B000882361F190E0880F991FFC01E050FD4FF5
:1016C000C591D491FC01E65EFC4FA591B4916111E6
:1016D00009C09FB7F8948881209582238883EC9174
:1016E0002E230BC0623061F49FB7F8943881822FAB
:1016F000809583238883EC912E2B2C939FBF06C06B
:101700008FB7F894E8812E2B28838FBFDF91CF917C
:1017100008958F929F92AF92BF92CF92DF92EF92F5
:10172000FF926B017C010E9499094B015C01C1147D
:10173000D104E104F104F1F00E949909DC01CB012C
:1017400088199909AA09BB09883E9340A105B105EA
:1017500070F321E0C21AD108E108F10888EE880E82
:1017600083E0981EA11CB11CC114D104E104F10452
:1017700019F7DDCFFF90EF90DF90CF90BF90AF9043
:101780009F908F9008952FB7F89460918203709185
:10179000830380918403909185032FBF08951F9246
:1017A0000F920FB60F9211242F933F938F939F9315
:1017B000AF93BF938091820390918303A0918403A0
:1017C000B09185033091810323E0230F2D3720F45E
:1017D0000196A11DB11D05C026E8230F0296A11D8B
:1017E000B11D209381038093820390938303A09380
:1017F0008403B09385038091860390918703A09121
:101800008803B09189030196A11DB11D80938603C1
:1018100090938703A0938803B0938903BF91AF91FE
:101820009F918F913F912F910F900FBE0F901F901E
:101830001895BF92CF92DF92EF92FF920F931F9372
:10184000CF93DF937C016B01EA01890124173507EF
:1018500020F48D2FE901042F182F60E373E0C701F6
:101860000E94A904D60114968D919C911597C817D2
:10187000D907C8F58017910708F48C01D601ED91BE
:10188000FC911197E00FF11FB08010824D915C9197
:10189000BA016C0F7D1F6115710561F0FB010190AC
:1018A0000020E9F73197AF01461B570BC7010E9493
:1018B000690413C0F70180819181009711F00E94A3
:1018C000DB1AD70111961C921E9215961C921E923D
:1018D000149713961C921E921297D601ED91FC91CB
:1018E000E00FF11FB082C701DF91CF911F910F91DF
:1018F000FF90EF90DF90CF90BF9008958F929F92CE
:10190000AF92BF92CF92DF92EF92FF92CF93DF938D
:10191000A0915304882311F03A2F01C030E0809148
:10192000540490E0880F991F8C5C9C4FC090590420
:10193000D0905A04E0905B04F0905C0440E050E0EA
:10194000BA01FC01C591D49128812A2323130FC029
:101950004A015B012FEF821A920AA20AB20A4C15C1
:101960005D056E057F0538F4B501A401EACF342F7B
:10197000252FCB0104C030E020E080E090E0632F11
:10198000722FDF91CF91FF90EF90DF90CF90BF90BB
:10199000AF909F908F9008950F931F93CF93DF93F5
:1019A000D82FC8E00BE410E0D7FF02C061E001C00F
:1019B00060E080912C040E941D0B60E080912B045C
:1019C0000E941D0BC8010197F1F761E080912B0483
:1019D0000E941D0BC8010197F1F7DD0FC15021F7DF
:1019E000DF91CF911F910F9108952F923F924F92C7
:1019F0005F926F927F928F929F92AF92BF92CF929F
:101A0000DF92EF92FF920F931F93CF93DF93EC013E
:101A10002A013B0148015901198218821B821A824E
:101A20001D821C821E821F82188619861A861B86BA
:101A30001C861D86A9019801C301B2010E94F51CF4
:101A40000E946C186B017C016115710549F0660FED
:101A5000771F80E090E00E94731B1C01892BD1F05E
:101A6000398228821D821C82DB82CA824E825F827A
:101A7000688679868A869B86AC86BD86F10180E081
:101A800090E02A813B818217930720F411921192F2
:101A90000196F7CFDF91CF911F910F91FF90EF90BB
:101AA000DF90CF90BF90AF909F908F907F906F907E
:101AB0005F904F903F902F9008950C94850A009767
:101AC00069F0FC0101900020E9F73197AF01481B54
:101AD000590BBC018AE893E00C94460280E090E048
:101AE00008958F929F92AF92BF920F931F93CF93BF
:101AF000DF93CDB7DEB7A1970FB6F894DEBF0FBE68
:101B0000CDBF19A2423008F44AE08E010F5D1F4F8D
:101B1000842E912CA12CB12CA50194010E94481770
:101B2000E62FB901CA0101501109EA3014F4E05D51
:101B300001C0E95CD801EC93232B242B252B61F702
:101B4000C8010E945F0DA1960FB6F894DEBF0FBECC
:101B5000CDBFDF91CF911F910F91BF90AF909F901C
:101B60008F9008958EE293E00C945F0D0F931F9376
:101B7000CF93DF938C01C0E0D0E0F801EC0FFD1FA4
:101B80006491662371F0E0918A03F0918B030190D8
:101B9000F081E02D8AE893E01995892B11F02196C8
:101BA000ECCFCE01DF91CF911F910F910895CF938C
:101BB000DF930E94B60DEC010E94B20D8C0F9D1FA9
:101BC000DF91CF91089580917B00877F80937B0088
:101BD00081E480937C0080917A00806480937A0015
:101BE00080917A0086FDFCCF809178002091790069
:101BF00090E0922B0895CF93DF93EC0162E070E0C8
:101C00000E943417019711F461E001C060E08091F7
:101C10005E040E941D0BCE0164E070E00E94341748
:101C2000029714F061E001C060E0809160040E94BE
:101C30001D0B249714F061E001C060E08091620404
:101C4000DF91CF910C941D0BCF93DF93E0E5F3E090
:101C50008491ECEDF3E0D491E6E9F3E0C491CC2378
:101C600091F081110E94C70AEC2FF0E0EE0FFF1FE8
:101C7000EC5CFC4FA591B491EC91ED2381E090E0F8
:101C800021F480E002C080E090E0DF91CF910895E0
:101C9000E0918A03F0918B030190F081E02D682F91
:101CA0008AE893E019946F927F928F929F92AF92FD
:101CB000BF92CF92DF92EF92FF920F931F93CF9339
:101CC000DF93982E862E742E622E80E00E94CC0C1C
:101CD00080E00E94CC0C80E00E94CC0C80E00E944E
:101CE000CC0C83E0989E8001112478018FEFE81AD4
:101CF000F80A680182E0C80ED11CC0E080912D0472
:101D0000C81708F03FC0C91115C0E0912E04F0912A
:101D10002F04E00FF11F8082E0912E04F0912F0438
:101D2000EE0DFF1D7082E0912E04F0912F04EC0D5A
:101D3000FD1D6082E0912E04F0912F0483E0C89F86
:101D4000E00DF11D1124A280B180D081A7FC02C05A
:101D500080EE01C080ECA6FE8061B7FE8860B6FE12
:101D60008460D7FF8260D6FF81600E94CC0C8A2DF0
:101D70000E94CC0C8B2D0E94CC0C8D2F0E94CC0C81
:101D8000CF5FBCCF80E00E94CC0C80E00E94CC0CE6
:101D900080E00E94CC0C80E0DF91CF911F910F91E9
:101DA000FF90EF90DF90CF90BF90AF909F908F907B
:101DB0007F906F900C94CC0CCF92DF92EF92FF92B9
:101DC0000F931F93CF93DF93CDB7DEB7C054D140AD
:101DD0000FB6F894DEBF0FBECDBF0E94C30B0091BB
:101DE00055041091560420915704309158046B010A
:101DF0007C01C01AD10AE20AF30A40EDC41647E09A
:101E0000D406E104F10418F480915D04BCC0609331
:101E1000550470935604809357049093580410927D
:101E2000500410924F0410924E0410924D041092E0
:101E30004C0461E0809151040E941D0B6AEF70E038
:101E400080E090E00E94890B61E0809151040E9443
:101E50004D0B60E0809151040E941D0B64E170E025
:101E600080E090E00E94890BF89461E08091510439
:101E70000E941D0B8BE990E00197F1F762E08091E1
:101E800051040E944D0B83E290E00197F1F780E04E
:101E90000E947E0C672B682B692B21F410925D0445
:101EA00078943EC081E00E947E0C672B682B692BE2
:101EB000A9F38E010F5F1F4F6E018FEBC81A8EEFD3
:101EC000D80A780180E00E947E0CF701608371835C
:101ED0008283938381E00E947E0CF7016483758383
:101EE00086839783F8E0EF0EF11CEC14FD0451F7A4
:101EF000789420E030E0F801408151816281738163
:101F0000C480D580E680F7804115510561057105D3
:101F100029F0C114D104E104F10421F410925D040C
:101F200080E031C0F90183E0F595E7958A95E1F706
:101F3000E45BFB4F8081880F4C155D056E057F05C6
:101F400008F4816080832F5F3F4F085F1F4F283266
:101F5000310589F62091500430E040914C04809185
:101F60004D0490E0840F911D40914E04840F911D0B
:101F700040914F04840F911D99272817390771F656
:101F800081E080935D04C05CDE4F0FB6F894DEBF45
:101F90000FBECDBFDF91CF911F910F91FF90EF90BA
:101FA000DF90CF900895CF92DF92EF92FF92CF9380
:101FB0000E94DC0E8823D1F1809152048B3029F0ED
:101FC000A8F18551823048F031C060914E0470E034
:101FD00080E090E00E94941C2DC0C0914E046C2FB4
:101FE0006F7770E080E090E00E94961C20E030E087
:101FF00040E853E40E94F51C6B017C0180914F0482
:10200000682F70E080E090E00E94961C9B01AC017C
:10201000C701B6010E9487172DEC3CEC4CEC5DE348
:102020000E94F51CC7FF06C0905804C060E070E035
:1020300080EC9FE7CF91FF90EF90DF90CF900895D5
:102040000C945F0D4F925F926F927F928F929F924E
:10205000AF92BF92CF92DF92EF92FF926B017C0121
:102060009B01AC010E944019882319F081E393E0A1
:102070001AC046015701E894B7F82FEF3FEF4FE73A
:102080005FE7C501B4010E944019811110C02FEF14
:102090003FEF4FE75FE7C501B4010E948F1C1816A0
:1020A00034F485E393E00E945F0D7C017FC02FEF45
:1020B0003FEF4FE75FE4C701B6010E949B18181677
:1020C0001CF489E393E0EFCF2FEF3FEF4FE75FEC96
:1020D000C701B6010E948F1C87FDF3CF20E030E0DE
:1020E000A901C701B6010E948F1C87FF09C08DE2BC
:1020F0000E94480E5C01F7FAF094F7F8F09402C0E1
:10210000A12CB12C2AE037ED43EA5BE3C701B6010D
:102110000E9487172B013C010E946C186B017C0107
:102120000E94941C9B01AC01C301B2010E9486175E
:102130002B013C014AE0C701B6010E94710D7C01F0
:10214000EA0CFB1C8EE20E94480EE80EF91E20E00D
:1021500030E040E251E4C301B2010E94F51C2B01C2
:102160003C010E946C184B01A12CB12C4AE0C50126
:10217000B4010E94710DE80EF91EC501B4010E9460
:10218000941C9B01AC01C301B2010E94861720E0A0
:1021900030E040E251E40E94F51C0E946C1880E09F
:1021A00090E04AE00E94710DE80EF91E0E94B20D07
:1021B0008E0D9F1DFF90EF90DF90CF90BF90AF905E
:1021C0009F908F907F906F905F904F900895AF9207
:1021D000BF92CF92DF92EF92FF920F931F93CF9314
:1021E000DF93FC01008111810115110541F1A280ED
:1021F000B380C0E0D0E0C12CD12C7601CA15DB053C
:1022000091F0F801619171918F0180E090E00E945E
:10221000941C9B01AC01C701B6010E9487176B019A
:102220007C012196EBCFBE0180E090E00E94941CDF
:102230009B01AC01C701B6010E94F31703C060E027
:1022400070E0CB01DF91CF911F910F91FF90EF9044
:10225000DF90CF90BF90AF9008958F929F92AF92F2
:10226000BF92CF92DF92EF92FF920F931F93CF9383
:10227000DF9300D0CDB7DEB77C01D701ED91FC91A3
:102280000480F581E02DC7011995059708F47CC0FD
:10229000C7010E94C009813B910579F7C7010E94DF
:1022A000C0098234910549F7D701ED91FC91028074
:1022B000F381E02D43E050E0BE016F5F7F4FC70127
:1022C0001995039709F060C029818A81322F382738
:1022D00093EF93273B81931357C0F701238390E03B
:1022E00095838483892B09F44CC00190F081E02D03
:1022F0000680F781E02DC70119954B015C01D701DC
:10230000ED91FC910480F581E02DC7011995F7014D
:10231000448155814817590760F000EA1FE020E02A
:1023200030E0B501A401C7010E94570A882339F3A0
:102330002BC087010A5F1F4F0190F081E02D0280C2
:10234000F381E02DB801C7011995D70114962D919D
:102350003C91159782179307A1F4C7010E94C00909
:10236000F801D70114962D913C911597200F311F3C
:1023700090E0E217F30719F041919427FACF9813F0
:1023800003C081E0F70182836701F2EFCF1AFEEF0D
:10239000DF0AD6014D915D916D917C9100EA1FE0BD
:1023A00020E030E0C7010E94570A8823A9F020E00E
:1023B00030E040E050E060E0C7010E94DC09D70156
:1023C000ED91FC910680F781E02DC7011995F6018A
:1023D0006083718382839383D70112968C911297C5
:1023E0008701065F1E4F8823E9F013968C9113979F
:1023F000811118C0ED91FC910680F781E02DC70195
:102400001995F8016083718382839383D7011296B3
:102410001C928DE393E00E94201081E0F701E75FBA
:10242000FE4F8083F801408151816281738100E415
:102430001FE120E030E0C7010E94570A882321F005
:10244000F701E75FFE4F108287010E5E1E4FD80135
:102450008C91811128C0F7018281882321F1838129
:10246000803109F512820480F581E02DEE0DFF1D0B
:102470008581811118C020E030E040E050E061E14A
:10248000C7010E94DC0981E0D8018C93D701ED914E
:10249000FC91B7016A5F7F4F0084F185E02DC70191
:1024A0001995F80110820F900F900F90DF91CF9146
:1024B0001F910F91FF90EF90DF90CF90BF90AF9062
:1024C0009F908F90089580912E0490912F040C94EA
:1024D000DB1ACF93DF93CDB7DEB729970FB6F89409
:1024E000DEBF0FBECDBF789484B5826084BD84B555
:1024F000816084BD85B5826085BD85B5816085BDFF
:1025000080916E00816080936E00109281008091B6
:10251000810082608093810080918100816080933E
:102520008100809180008160809380008091B10063
:1025300084608093B1008091B00081608093B0008E
:1025400080919100826080939100809191008160E0
:1025500080939100809190008160809390008091A1
:10256000A10082608093A1008091A100816080938E
:10257000A1008091A00081608093A0008091210142
:1025800082608093210180912101816080932101EB
:102590008091200181608093200180917A00846085
:1025A00080937A0080917A00826080937A00809193
:1025B0007A00816080937A0080917A0080688093AD
:1025C0007A001092C100E0919A03F0919B0382E09F
:1025D0008083E0919603F09197031082E091980335
:1025E000F09199038FEC80831092A203E0919E03F7
:1025F000F0919F0386E08083E0919C03F0919D031E
:10260000808180618083E0919C03F0919D038081B3
:1026100088608083E0919C03F0919D0380818068B5
:102620008083E0919C03F0919D0380818F7D808366
:102630000E94B20D8AE992E00E94D70D8DE692E0E9
:102640000E94D70D80E492E00E94D70D8AE893E0C3
:102650000E94470361E080912B040E944D0B61E0D2
:1026600080912C040E944D0B10E080912D041817CE
:1026700040F420E040E060E0812F0E94530E1F5F95
:10268000F4CFE0911406F0911506A089B18982E09B
:102690008C93A485B5851C92A685B78588E08C931C
:1026A000108EA489B58986E08C93A289B3898C9118
:1026B00080618C93A289B3898C9188608C93A28964
:1026C000B3898C9180688C930288F389E02D808196
:1026D0008F7D808360ED77E080E090E00E94890B41
:1026E00062E0809151040E944D0B80E398EFAFEFC0
:1026F000BFEF8093550490935604A0935704B09372
:10270000580460E082E00E944D0B85EF93E09093C7
:1027100001028093000280916A008C7F8160809327
:102720006A00EC9A10926F03109264031092630394
:10273000109266031092650310926803109267036B
:1027400010926A031092690310926C0310926B034B
:1027500010926E0310926D0383E380935103809374
:1027600052038093530380935403809355038093C3
:10277000560361E084E00E944D0B61E085E00E9419
:102780004D0B61E086E00E944D0B61E080E10E940C
:102790004D0B60E087E30E944D0B60E087E30E94F1
:1027A0004D0B8AE893E00E9447038FE192E00E947C
:1027B000D70DBAE02B2E312C8E01065F1F4F81E022
:1027C00095E00E942D1185ED92E00E94D70D8EEFCD
:1027D00090E0909358038093570381E090E00E942B
:1027E000FB0DA2E3EA2EF12C812C912C54010E94C6
:1027F000E30DBC01990F880B990B0E94961C20E0F9
:1028000030E040EA50E40E94F51C20E030EC4FE755
:1028100054E40E94F31721EC3AEC41E95FEB0E948B
:10282000F01828EF33E54AEC51E40E94F51C9B01B7
:10283000AC01C501B4010E9487174B015C0191E016
:10284000E91AF108A1F620E030E048E452E4C501BD
:10285000B4010E94F3176B017C0120E030E046E1F7
:1028600053E40E949B1818164CF0A7019601C7016B
:10287000B6010E944019882339F00EC0C12CD12C1A
:10288000F6E1EF2EF3E4FF2EC701B6010E946C18AB
:10289000709358036093570380E090E00E94FB0D13
:1028A0000E94D30F2B013C010E9465187B01072E6B
:1028B000000C880B990B0E94961C9B01AC01C30174
:1028C000B2010E94861720E030E040E05FE30E9402
:1028D0009B1887FD03C0EFEFEE1AFE0A81E090E03F
:1028E0000E94FB0DEAE0AE2EB12CC12CD12C0E942F
:1028F000E30DC80ED91EF1E0AF1AB108C1F7C60149
:10290000B1010E943417072E000C880B990B0E940E
:10291000961C4B015C019B01AC010E944019811186
:102920003CC0B70180E090E00E94941C22E430E6B5
:1029300045E65CE30E94F51C2EEA37E441EA5FE3DA
:102940000E94871720E030E045E553E40E94F51C23
:102950009B01AC01C501B4010E949B182091630347
:102960003091640387FF0FC02E3F8FEF380744F488
:10297000E0906403E094EE1CEE24EE1CF12C0FC0FA
:102980002150310905C02330310574F72F5F3F4FC7
:102990003093640320936303EBCFE12CF12C8091FF
:1029A0004F03909150038F3F910521F0892B21F027
:1029B00083E003C081E001C082E0509159035F5F72
:1029C00040915B034F5F30915D033F5F20915F0358
:1029D0002F5F909161039F5F609157036F5F6983E1
:1029E0005A834B833C832D839E8391E09E0D9F836E
:1029F0008F5F88879FEF9987FE01319678E7C72E12
:102A000073E0D72ED60181918D93E017F107D9F7A6
:102A100080916F03811113C068E773E08FE693E044
:102A20000E947A1C88EC92E00E94D70D8091570397
:102A3000909158038734910508F445C057C0AFE61C
:102A4000B3E0E8E7F3E08D91803574F02081213523
:102A5000E4F4082E000C990B0E97022E000C330B99
:102A60002817390794F4D8CF082E000C990B208131
:102A7000022E000C330BAC014E50510924173507C0
:102A80005CF20E96821793073CF2319683E0ED37A5
:102A9000F807C9F690917E03809175039813BCCF17
:102AA00090917F03917897FF03C091509E6F9F5F35
:102AB00080917603817887FF03C081508E6F8F5F8E
:102AC0009813AACF1CC020E0EF2839F44FEF62E33F
:102AD00080E00E94530E81E306C040E06FEF80E08B
:102AE0000E94530E82E38093510309C02FEF40E010
:102AF00060E080E00E94530E90E3909351030E94A7
:102B0000B20DF60181916F010E94480EF1E8CF16D7
:102B1000F3E0DF06B1F70E94B20DC0904404D090FC
:102B20004504E0904604F090470420E030E0A9011D
:102B3000C701B6010E948F1C882359F0A701960196
:102B400060E070E080E89FE30E94F3174B015C01B6
:102B500006C0812C912C60ECA62E6FE7B62E0E9449
:102B6000C30B6B017C018091160690911706A09112
:102B70001806B091190626013701481A590A6A0A3F
:102B80007B0A20E030E04AE754E4C501B4010E942A
:102B9000F51C0E946C18461657066806790608F45C
:102BA00062C0C0921606D0921706E0921806F09204
:102BB00019060E94240E20913E0430913F042115F5
:102BC000310511F160914204709143044091400439
:102BD000509141046417750720F01092430410923D
:102BE0004204E0914204F0914304EE0FFF1FE20F14
:102BF000F31F918380838091420490914304019656
:102C0000909343048093420480E090E00E94FB0D87
:102C10000E94E30D209130043091310421153105DB
:102C200011F1609134047091350440913204509157
:102C300033046417750720F01092350410923404A1
:102C4000E0913404F0913504EE0FFF1FE20FF31F03
:102C50009183808380913404909135040196909300
:102C600035048093340480910A06882319F086EF96
:102C700092E002C089EE92E00E94D70D0E946903A3
:102C80009ECD0F931F93CF93DF93C4E6D4E01B82B6
:102C90001A8248EE53E060E070E04C835D836E83FF
:102CA0007F838AE192E0998388832DEC30E03D8731
:102CB0002C872CEC30E03F872E8728EC30E0398BD6
:102CC000288B29EC30E03B8B2A8B2AEC30E03D8BC3
:102CD0002C8B2EEC30E03F8B2E8B198E1A8E1B8E98
:102CE0001C8EEAE8F3E013821282448355836683E4
:102CF00077839183808385EC90E09587848784EC4B
:102D000090E09787868780EC90E0918B808B81ECB8
:102D100090E0938B828B82EC90E0958B848B86EC99
:102D200090E0978B868B118E128E138E148EEEE5AB
:102D3000F4E084E090E09183808385E090E09383E9
:102D4000828386E090E09583848360E084E00E9443
:102D50001D0B60E085E00E941D0B60E086E00E9494
:102D60001D0BACE4B4E086E315968C93159786E1D1
:102D700016968C931697E0E1F4E0E4911796EC93A5
:102D80001797EAECF3E0E4911896EC93189740E873
:102D90005EE360E070E01D964D935D936D937C93D0
:102DA000509700E010E020EF31E440E050E060E8B0
:102DB00070E48EE394E00E94F50C00E010E020EF58
:102DC00031E440E050E060E870E480E394E00E9489
:102DD000F50C0BE214E087E0F801808388E0818342
:102DE00081E0828361E070E083E090E00E942A1A33
:102DF000F8019483838380E090E0A0E4B0E48093C2
:102E0000270490932804A0932904B0932A04E1E0B6
:102E1000F5E010920F061092100610921106109213
:102E2000120610920B0610920C0610920D061092CC
:102E30000E0610920A0615821482109213068DE275
:102E400092E091838083D0931506C093140610926C
:102E50001606109217061092180610921906DF91A6
:102E6000CF911F910F91089597FB072E16F40094B0
:102E700007D077FD09D00E94721707FC05D03EF4F9
:102E8000909581959F4F0895709561957F4F089516
:102E9000A1E21A2EAA1BBB1BFD010DC0AA1FBB1F5E
:102EA000EE1FFF1FA217B307E407F50720F0A21BD0
:102EB000B30BE40BF50B661F771F881F991F1A943D
:102EC00069F760957095809590959B01AC01BD0167
:102ED000CF010895EE0FFF1F881F8BBF0790F6915B
:102EE000E02D1994AA1BBB1B51E107C0AA1FBB1FF1
:102EF000A617B70710F0A61BB70B881F991F5A9586
:102F0000A9F780959095BC01CD0108955058BB2735
:102F1000AA270E949E170C94791D0E946B1D38F001
:102F20000E94721D20F039F49F3F19F426F40C948E
:102F3000681D0EF4E095E7FB0C94621DE92F0E94DA
:102F40008A1D58F3BA17620773078407950720F0A4
:102F500079F4A6F50C94AC1D0EF4E0950B2EBA2F67
:102F6000A02D0B01B90190010C01CA01A00111248F
:102F7000FF27591B99F0593F50F4503E68F11A163B
:102F8000F040A22F232F342F4427585FF3CF4695CC
:102F900037952795A795F0405395C9F77EF41F16EE
:102FA000BA0B620B730B840BBAF09150A1F0FF0FB8
:102FB000BB1F661F771F881FC2F70EC0BA0F621FA4
:102FC000731F841F48F4879577956795B795F79594
:102FD0009E3F08F0B0CF9395880F08F09927EE0F29
:102FE0009795879508950E9407180C94791D0E9463
:102FF000721D58F00E946B1D40F029F45F3F29F0CC
:103000000C94621D51110C94AD1D0C94681D0E940E
:103010008A1D68F39923B1F3552391F3951B550B42
:10302000BB27AA2762177307840738F09F5F5F4F9B
:10303000220F331F441FAA1FA9F335D00E2E3AF0DA
:10304000E0E832D091505040E695001CCAF72BD0F2
:10305000FE2F29D0660F771F881FBB1F2617370743
:103060004807AB07B0E809F0BB0B802DBF01FF2775
:1030700093585F4F3AF09E3F510578F00C94621DD3
:103080000C94AD1D5F3FE4F3983ED4F3869577959D
:103090006795B795F7959F5FC9F7880F911D96952E
:1030A000879597F90895E1E0660F771F881FBB1F8A
:1030B000621773078407BA0720F0621B730B840B37
:1030C000BA0BEE1F88F7E09508950E946C1868947B
:1030D000B1110C94AD1D08950E94921D88F09F5768
:1030E00098F0B92F9927B751B0F0E1F0660F771F2C
:1030F000881F991F1AF0BA95C9F714C0B13091F022
:103100000E94AC1DB1E008950C94AC1D672F782F80
:103110008827B85F39F0B93FCCF3869577956795E6
:10312000B395D9F73EF490958095709561957F4F52
:103130008F4F9F4F08950E94D11C08F48FEF089580
:1031400016F00C947F190C94681D68940C94621D01
:103150000E94921DA8F39923C1F3AEF3DF93CF939E
:103160001F930F93FF92C92FDD2788232AF0219701
:10317000660F771F881FDAF720E030E040E85FEB4A
:103180009FE3883920F0803E38F021968F770E94A7
:103190008717E8E0F1E004C00E948717E5E3F1E05B
:1031A0000E948D198B01BE01EC01FB2E6F57710936
:1031B0007595771F880B990B0E94961C28E132E7C2
:1031C00041E35FE30E94081DAF2D9801AE01FF901F
:1031D0000F911F91CF91DF910E949E170C94791D42
:1031E000FA01EE0FFF1F309621053105A1F161159F
:1031F000710561F48038BFE39B0749F1689490380A
:10320000810561F08038BFEF9B0741F099234AF5B3
:10321000FF3FE1053105210519F1E8940894E79590
:10322000D901AA2329F4AB2FBE2FF85FD0F310C029
:10323000FF5F70F4A695E0F7F73950F019F0FF3A08
:1032400038F49F779F930DD00F9007FC9058089506
:1032500046F00C94681D60E070E080E89FE30895FC
:103260004FE79F775F934F933F932F930E94A81848
:103270002F913F914F915F910E94F51C0C944D1935
:103280000E94D11C880B990B089529F416F00C9418
:10329000621D0C94AC1D0C94681D0E94921DA8F335
:1032A0009638A0F707F80F92E8942BE33AEA48EB38
:1032B0005FE70E940B1D0F920F920F924DB75EB702
:1032C0000F920E94F619E2E6F1E00E948D194F91EB
:1032D0005F91EF91FF91E595EE1FFF1F49F0FE57BB
:1032E000E0684427EE0F441FFA95E1F74195550B2E
:1032F0000E94C0190F9007FE0C94B41908959F3FC7
:1033000031F0915020F4879577956795B795880FA0
:10331000911D9695879597F90895DF93CF931F9305
:103320000F93FF92EF92DF927B018C01689406C0AD
:10333000DA2EEF010E94081DFE01E894A591259167
:10334000359145915591A6F3EF010E949E17FE011C
:103350009701A801DA9469F7DF90EF90FF900F9141
:103360001F91CF91DF9108959B01AC0160E070E067
:1033700080E89FE30C94F3170C94621D0C947F1962
:103380000E94921DD8F39923C9F3940F511DA3F302
:103390009150504094F059F0882332F0660F771F17
:1033A000881F91505040C1F79E3F51052CF7880F60
:1033B000911D9695879597F908955F3FACF0983EDB
:1033C0009CF0BB27869577956795B79508F4B16013
:1033D0009395C1F7BB0F58F711F460FFE8CF6F5F0B
:1033E0007F4F8F4F9F4FE3CF0C94AD1DFA01DC014F
:1033F000AA0FBB1F9B01AC01BF5728F4222733271C
:103400004427507820C0B75190F4AB2F0024469544
:1034100037952795011CA395D2F3002071F0220F58
:10342000331F441FB395DAF30ED00C948617613026
:103430007105A0E88A07B94630F49B01AC01662704
:10344000772788279078309621F020833183428334
:10345000538308950F931F93CF93DF93869F80012B
:10346000879F100D969F100D1124C8010E94461AC7
:10347000EC01009729F0A80160E070E00E946A1C4E
:10348000CE01DF91CF911F910F910895CF93DF93DC
:103490008230910510F482E090E0E0911C06F091FA
:1034A0001D0620E030E0C0E0D0E0309711F140810F
:1034B000518148175907C0F04817590761F48281B4
:1034C0009381209719F09B838A832BC090931D06CC
:1034D00080931C0626C02115310519F042175307A9
:1034E00018F49A01BE01DF01EF010280F381E02DA3
:1034F000DCCF2115310509F1281B390B24303105AA
:1035000090F412968D919C9113976115710521F09D
:10351000FB019383828304C090931D0680931C0655
:10352000FD01329644C0FD01E20FF31F8193919398
:10353000225031092D933C933AC020911A063091C4
:103540001B06232B41F42091120230911302309379
:103550001B0620931A0620911002309111022115AA
:10356000310541F42DB73EB7409114025091150238
:10357000241B350BE0911A06F0911B06E217F307A6
:10358000A0F42E1B3F0B2817390778F0AC014E5FD3
:103590005F4F2417350748F04E0F5F1F50931B06EF
:1035A00040931A068193919302C0E0E0F0E0CF01CE
:1035B000DF91CF9108950F931F93CF93DF930097DF
:1035C00009F48CC0FC0132971382128200911C0610
:1035D00010911D060115110581F420813181820FA2
:1035E000931F20911A0630911B062817390779F589
:1035F000F0931B06E0931A0671C0D80140E050E03A
:10360000AE17BF0750F412962D913C911397AD0160
:103610002115310509F1D901F3CF9D01DA01338379
:10362000228360817181860F971F8217930769F447
:10363000EC0128813981260F371F2E5F3F4F3183E0
:1036400020838A819B8193838283452B29F4F09385
:103650001D06E0931C0642C01396FC93EE9312974E
:10366000ED01499159919E01240F351FE217F3078F
:1036700071F480819181840F951F029611969C931D
:103680008E938281938113969C938E931297E0E0A0
:10369000F0E0D80112968D919C911397009719F044
:1036A000F8018C01F6CF8D919C9198012E5F3F4FD0
:1036B000820F931F20911A0630911B062817390795
:1036C00069F4309729F410921D0610921C0602C06E
:1036D0001382128210931B0600931A06DF91CF917A
:1036E0001F910F9108956F927F928F929F92AF9248
:1036F000BF92CF92DF92EF92FF920F931F93CF93DF
:10370000DF93EC01009789F4CB01DF91CF911F91FA
:103710000F91FF90EF90DF90CF90BF90AF909F9070
:103720008F907F906F900C94461AFC01E60FF71F64
:103730009C0122503109E217F30708F4ACC0D9010B
:103740000D911C91119706171707B0F00530110560
:1037500008F49FC0C80104978617970708F499C01A
:1037600002501109061B170B019311936D937C9363
:10377000CF010E94DB1A8DC05B01A01AB10A4C0177
:10378000800E911EA0911C06B0911D0640E050E0F5
:10379000E12CF12C109709F44AC0A815B905D1F510
:1037A0006D907C901197630182E0C80ED11CCA1401
:1037B000DB0480F1A3014A195B096A0182E0C80EAB
:1037C000D11C1296BC9012971396AC91B5E0CB1613
:1037D000D10440F0B282A38351834083D9016D9319
:1037E0007C930AC00E5F1F4FC301800F911FF90128
:1037F00091838083EB2DFA2FE114F10431F0D7018E
:103800001396FC93EE93129744C0F0931D06E09339
:103810001C063FC08D919C9111974817590708F4D9
:10382000AC017D0112960D90BC91A02DB3CF80917B
:103830001A0690911B0688159905E1F4461757075B
:10384000C8F48091100290911102009741F48DB755
:103850009EB74091140250911502841B950BE817F6
:10386000F907C8F4F0931B06E0931A06F901718377
:1038700060830FC0CB010E94461A7C01009759F06B
:10388000A801BE010E94611CCE010E94DB1AC70183
:1038900004C0CE0102C080E090E0DF91CF911F9183
:1038A0000F91FF90EF90DF90CF90BF90AF909F90DF
:1038B0008F907F906F90089581E090E0F8940C9441
:1038C000B31DFB01DC0102C001900D92415050403C
:1038D000D8F70895DC0101C06D9341505040E0F7E6
:1038E0000895FB01DC018D91019080190110D9F33D
:1038F000990B0895FB01DC0101900D920020E1F786
:103900000895FB01DC014150504030F08D91019051
:10391000801919F40020B9F7881B990B08950E94AB
:10392000D11C08F481E00895E89409C097FB3EF4A7
:1039300090958095709561957F4F8F4F9F4F9923FC
:10394000A9F0F92F96E9BB279395F695879577957A
:103950006795B795F111F8CFFAF4BB0F11F460FF3A
:103960001BC06F5F7F4F8F4F9F4F16C0882311F092
:1039700096E911C0772321F09EE8872F762F05C0A6
:10398000662371F096E8862F70E060E02AF09A9541
:10399000660F771F881FDAF7880F9695879597F936
:1039A0000895990F0008550FAA0BE0E8FEEF1616D0
:1039B0001706E807F907C0F012161306E407F50723
:1039C00098F0621B730B840B950B39F40A2661F097
:1039D000232B242B252B21F408950A2609F4A1403A
:1039E000A6958FEF811D811D08950E94081D0C94DE
:1039F000791D0E946B1D38F00E94721D20F09523E6
:103A000011F00C94621D0C94681D11240C94AD1DD2
:103A10000E948A1D70F3959FC1F3950F50E0551FCA
:103A2000629FF001729FBB27F00DB11D639FAA2713
:103A3000F00DB11DAA1F649F6627B00DA11D661F62
:103A4000829F2227B00DA11D621F739FB00DA11D83
:103A5000621F839FA00D611D221F749F3327A00D3D
:103A6000611D231F849F600D211D822F762F6A2FD9
:103A700011249F5750409AF0F1F088234AF0EE0F3E
:103A8000FF1FBB1F661F771F881F91505040A9F76B
:103A90009E3F510580F00C94621D0C94AD1D5F3F5C
:103AA000E4F3983ED4F3869577956795B795F795A7
:103AB000E7959F5FC1F7FE2B880F911D969587951F
:103AC00097F9089597F99F6780E870E060E008959E
:103AD0009FEF80EC089500240A9416161706180626
:103AE0000906089500240A94121613061406050602
:103AF0000895092E0394000C11F4882352F0BB0F93
:103B000040F4BF2B11F460FF04C06F5F7F4F8F4FF5
:103B10009F4F089557FD9058440F551F59F05F3F30
:103B200071F04795880F97FB991F61F09F3F79F0DF
:103B300087950895121613061406551FF2CF469561
:103B4000F1DF08C0161617061806991FF1CF8695E3
:103B50007105610508940895E894BB2766277727C7
:103B6000CB0197F9089512E0C1E1D2E000E006C070
:103B7000802FFE010E946A172196011DC231D107D4
:0A3B800080E00807A9F7F894FFCFD2
:103B8A0045024502450245024502450245024502F3
:103B9A0000001E06800000000000000346028E029C
:103BAA004703BF029D02B1023300000000AA0317B7
:103BBA00049E031504BE0473656E736F72733A3AFA
:103BCA0000636F6E6669673A3A0064697374616E7E
:103BDA0063650064697374616E6365313A00646990
:103BEA007374616E6365323A0064697374616E63FB
:103BFA0065333A0064697374616E6365343A0064CC
:103C0A00697374616E6365353A0064697374616ED1
:103C1A006365363A00737461747573007374617402
:103C2A007573313A00737461747573323A00737440
:103C3A0061747573333A00737461747573343A003E
:103C4A00737461747573353A00737461747573367D
:103C5A003A0074656D7065726174757265005465B9
:103C6A006D70657261747572653A0068756D696424
:103C7A006974790048756D69646974793A004D6FA1
:103C8A0074696F6E3A00536F756E643A00726561BB
:103C9A0064696E67733A3A6D6F74696F6E00726524
:103CAA006164696E67733A3A736F756E64000D0AE0
:103CBA00006E616E00696E66006F76660070616301
:0E3CCA006B657420686561727462206F6B0018
:00000001FF
