:100000000C9412020C94F7040C94CC040C94A104EC
:100010000C9476040C944B040C9420040C94F5037B
:100020000C94CA030C9443020C9443020C944302B4
:100030000C9443020C9443020C9443020C9443022C
:100040000C9443020C9443020C9443020C9443021C
:100050000C9443020C9443020C9443020C94C70288
:100060000C9443020C94A0050C9476050C94430266
:100070000C9443020C9443020C9443020C944302EC
:100080000C9443020C9443020C9443020C944302DC
:100090000C944C050C9422050C9443020C944302DE
:1000A0000C9443020C9443020C9443020C944302BC
:1000B0000C9443020C9443020C9443020C944302AC
:1000C0000C9443020C9443020C9443020C9443029C
:1000D0000C9443020C9443020C9443020C9443028C
:1000E0000C944302500E530E420E460E4C0E8A0ED6
:1000F000570E5B0E610E650E690E6F0E730E770E56
:100100008A0E7D0E810E850E08000000BE922449E5
:10011000123EABAAAA2ABECDCCCC4C3E0000008039
:10012000BEABAAAAAA3E00000000BF000000803FAC
:100130000000000000084178D3BB4387D1133D196C
:100140000E3CC3BD4282AD2B3E68EC8276BED98F99
:10015000E1A93E4C80EFFFBE01C4FF7F3F000000DD
:10016000000007634236B79BD8A71A39685618AE05
:10017000BAAB558C1D3CB7CC5763BD6DEDFD753EDC
:10018000F6177231BF000000803F0C94E3090C9415
:1001900046020C94CE050C94850E0C9455090C94D3
:1001A00045020C9478060C944C060C94530E0C9457
:1001B000610E0C94460E0C948A0E0C94FF050C9460
:1001C000F1050C947D0E0C94DD050C94810E0C94BD
:1001D000500E0C946F0E0C942A0A0C94B9160C94C1
:1001E0004C0E0C945B0E0C94770E0C9457090C94E7
:1001F00058060C94B3160C9440060C94420E0C94C2
:10020000570E0C94730E0C94650E0C94690E537477
:10021000617274696E6720696E7465727161727063
:100220006520696E746572666163652E2E2E002DE1
:100230002D2D2D2D2D2D2D2D2D2D2D2D2D2D2D2DEE
:100240002D2D2D2D2D2D2D2D2D2D2D2D2D2D2D2DDE
:100250002D2D2D2D2D2D2D2D2D2D2D007C20514181
:100260005250454449454D202D20436F6E6E6563C5
:10027000746564205461626C652053656E736F729F
:1002800020426F617264207C002D2D2D2D2D2D2D8F
:100290002D2D2D2D2D2D2D2D2D2D2D2D2D2D2D2D8E
:1002A0002D2D2D2D2D2D2D2D2D2D2D2D2D2D2D2D7E
:1002B0002D2D2D2D2D2D00476F7420616E2065761C
:1002C000656E74003D3D53656E736F727320726F7F
:1002D0007574696E653D3D00444953434F4E4E452C
:1002E0004354454400434F4E4E4543544544004912
:1002F0006E636F6D696E672071756572793A200063
:1003000000002100240027002A002D0030003300C7
:1003100001010000040107010A010000220025007C
:1003200028002B002E0031003400020100000501DE
:1003300008010B01000020002300260029002C00EA
:100340002F00320000010000030106010901000036
:100350000A0B02090C0D0E0807030401000000003F
:10036000000000000000000000000000000000008D
:10037000000000000000000000001211100000004A
:10038000000000000000000000000000000000006D
:100390000000000005050505070508080808020219
:1003A00002020A0A0808040404040101010101010F
:1003B00001010303030303030303040707070C0CF2
:1003C0000C0C0C0C0C0C02020202060606060606B9
:1003D00006060B0B0B0B0B0B0B0B0102102020085E
:1003E0000810204010204080020102010804020190
:1003F00001020408102040808040201008040201FF
:100400008004020180402010080402010804020157
:1004100001020408102040800102040810204080DE
:10042000B916B31611241FBECFEFD1E2DEBFCDBF88
:1004300000E00CBF13E0A0E0B2E0EAE7FCE300E07C
:100440000BBF02C007900D92A636B107D9F726E080
:10045000A6E6B3E001C01D92A633B207E1F712E0B1
:10046000C1E1D2E000E006C021970109802FFE0122
:100470000E94E217C031D10780E00807A9F70E9467
:10048000E1110C942B1E0C9400000895CF92DF9282
:10049000EF92FF920F931F93CF93DF936C017A013A
:1004A0008B01C0E0D0E0CE15DF0589F0D8016D9159
:1004B0008D01D601ED91FC910190F081E02DC601F6
:1004C0001995892B11F47E0102C02196ECCFC7014A
:1004D000DF91CF911F910F91FF90EF90DF90CF9020
:1004E00008950E94D41CEF92FF920F931F93CF9315
:1004F000DF93EC017B018A0188819981009729F0C3
:100500002A813B8124173507F8F4B8016F5F7F4FCC
:100510000E94EB1B009759F0998388831B830A8301
:100520002C813D81232B81F4FC0110820DC0888138
:100530009981009711F00E94531B198218821D8225
:100540001C821B821A8207C01D830C83B70188811D
:1005500099810E94F21CCE01DF91CF911F910F91E2
:10056000FF90EF9008958CE794E00E94FF0521E052
:10057000892B09F420E0822F089582EA93E00E94FB
:10058000FF0521E0892B09F420E0822F08951F92B6
:100590000F920FB60F9211242F933F938F939F9337
:1005A000AF93BF9380919A0390919B03A0919C037A
:1005B000B0919D033091980323E0230F2D3720F451
:1005C0000196A11DB11D05C026E8230F0296A11DAD
:1005D000B11D2093980380939A0390939B03A0935B
:1005E0009C03B0939D0380919E0390919F03A091E3
:1005F000A003B091A1030196A11DB11D80939E039C
:1006000090939F03A093A003B093A103BF91AF91D8
:100610009F918F913F912F910F900FBE0F901F9040
:100620001895FB0144815581FC01248135812417F3
:10063000350778F080819181009759F0FB01608146
:1006400071816115710529F00E94F91C21E0892B47
:1006500009F020E0822F0895FC0124813581232BAD
:1006600031F421E061157105A1F0FB0108C0FC0126
:10067000808191816115710531F421E0FC01808157
:10068000882339F005C00E94E91C21E0892B09F07C
:1006900020E0822F0895FC01808191810C94531BEE
:1006A000FC0111821082138212821582148261155C
:1006B000710551F0FB0101900020E9F73197AF017E
:1006C000461B570B0C9473020895BF92CF92DF9292
:1006D000EF92FF920F931F93CF93DF937C016B01F7
:1006E000EA0189012417350720F48D2FE901042F31
:1006F000182F61E572E0C7010E945003D6011496DD
:100700008D919C911597C817D907C8F58017910747
:1007100008F48C01D601ED91FC911197E00FF11FC7
:10072000B08010824D915C91BA016C0F7D1F6115F4
:10073000710561F0FB0101900020E9F73197AF01ED
:10074000461B570BC7010E94730213C0F70180813B
:100750009181009711F00E94531BD70111961C92B2
:100760001E9215961C921E92149713961C921E921E
:100770001297D601ED91FC91E00FF11FB082C701F5
:10078000DF91CF911F910F91FF90EF90DF90CF906D
:10079000BF9008951F920F920FB60F9211240BB6BF
:1007A0000F922F933F934F935F936F937F938F930A
:1007B0009F93AF93BF93EF93FF93E0910E02F0915D
:1007C0000F021995FF91EF91BF91AF919F918F917A
:1007D0007F916F915F914F913F912F910F900BBE41
:1007E0000F900FBE0F901F9018951F920F920FB68B
:1007F0000F9211240BB60F922F933F934F935F9359
:100800006F937F938F939F93AF93BF93EF93FF93D8
:10081000E0910C02F0910D021995FF91EF91BF91BB
:10082000AF919F918F917F916F915F914F913F9188
:100830002F910F900BBE0F900FBE0F901F90189529
:100840001F920F920FB60F9211240BB60F922F9397
:100850003F934F935F936F937F938F939F93AF9348
:10086000BF93EF93FF93E0910202F0910302199579
:10087000FF91EF91BF91AF919F918F917F916F9178
:100880005F914F913F912F910F900BBE0F900FBE34
:100890000F901F9018951F920F920FB60F92112470
:1008A0000BB60F922F933F934F935F936F937F936A
:1008B0008F939F93AF93BF93EF93FF93E0910002C9
:1008C000F09101021995FF91EF91BF91AF919F9126
:1008D0008F917F916F915F914F913F912F910F90E9
:1008E0000BBE0F900FBE0F901F9018951F920F9286
:1008F0000FB60F9211240BB60F922F933F934F9385
:100900005F936F937F938F939F93AF93BF93EF9377
:10091000FF93E0910A02F0910B021995FF91EF917C
:10092000BF91AF919F918F917F916F915F914F9107
:100930003F912F910F900BBE0F900FBE0F901F9005
:1009400018951F920F920FB60F9211240BB60F92AB
:100950002F933F934F935F936F937F938F939F93C7
:10096000AF93BF93EF93FF93E0910802F0910902D8
:100970001995FF91EF91BF91AF919F918F917F91C9
:100980006F915F914F913F912F910F900BBE0F9000
:100990000FBE0F901F9018951F920F920FB60F92D7
:1009A00011240BB60F922F933F934F935F936F9346
:1009B0007F938F939F93AF93BF93EF93FF93E091B8
:1009C0000602F09107021995FF91EF91BF91AF9147
:1009D0009F918F917F916F915F914F913F912F9157
:1009E0000F900BBE0F900FBE0F901F9018951F9287
:1009F0000F920FB60F9211240BB60F922F933F93C5
:100A00004F935F936F937F938F939F93AF93BF9316
:100A1000EF93FF93E0910402F09105021995FF9185
:100A2000EF91BF91AF919F918F917F916F915F9166
:100A30004F913F912F910F900BBE0F900FBE0F90D3
:100A40001F9018951F920F920FB60F9211240BB69C
:100A50000F922F933F934F935F936F937F938F9357
:100A60009F93AF93BF93EF93FF938CE794E00E9423
:100A7000C209FF91EF91BF91AF919F918F917F91AB
:100A80006F915F914F913F912F910F900BBE0F90FF
:100A90000FBE0F901F9018951F920F920FB60F92D6
:100AA00011240BB60F922F933F934F935F936F9345
:100AB0007F938F939F93AF93BF93EF93FF938CE7B5
:100AC00094E00E94A909FF91EF91BF91AF919F918E
:100AD0008F917F916F915F914F913F912F910F90E7
:100AE0000BBE0F900FBE0F901F9018951F920F9284
:100AF0000FB60F9211240BB60F922F933F934F9383
:100B00005F936F937F938F939F93AF93BF93EF9375
:100B1000FF9382EA93E00E94C209FF91EF91BF9197
:100B2000AF919F918F917F916F915F914F913F9185
:100B30002F910F900BBE0F900FBE0F901F90189526
:100B40001F920F920FB60F9211240BB60F922F9394
:100B50003F934F935F936F937F938F939F93AF9345
:100B6000BF93EF93FF9382EA93E00E94A909FF915C
:100B7000EF91BF91AF919F918F917F916F915F9115
:100B80004F913F912F910F900BBE0F900FBE0F9082
:100B90001F901895089580E090E00895FC01538D12
:100BA000448D252F30E0842F90E0821B930B541747
:100BB00010F0CF96089501970895FC01918D828DD4
:100BC000981761F0828DDF01A80FB11D5D968C91A1
:100BD000928D9F5F9F73928F90E008958FEF9FEFAC
:100BE0000895FC01918D828D981731F0828DE80F68
:100BF000F11D858D90E008958FEF9FEF0895FC0122
:100C0000918D228D892F90E0805C9F4F821B9109EE
:100C10008F739927089580E090E0892B21F00E943E
:100C2000BD02811121C080E090E0892B21F00E945B
:100C3000B30281111CC080E090E0892B41F080E07C
:100C400090E0892B21F00E940000811113C080E008
:100C500090E0892BA1F080E090E0892B81F00E9448
:100C6000000081110AC008950E940000DCCF0E949C
:100C70000000E1CF0E940000EACF0C94000008952C
:100C8000FC01ED5EFE4F80819181DC01ED91FC91D4
:100C90000084F185E02D1994FC01ED5EFE4F80810A
:100CA0009181DC01ED91FC910280F381E02D19949A
:100CB0000E940D1090936703809366030895CF936D
:100CC000DF9300D01F92CDB7DEB749835A836B8381
:100CD0007C8324E030E0AE014F5F5F4F61E20E9411
:100CE000920B0F900F900F900F90DF91CF9108957E
:100CF000CF92DF92EF92FF920F931F93CF93DF93E8
:100D0000CDB7DEB76E970FB6F894DEBF0FBECDBF7E
:100D10008C017B018FEE92E00E949D0FC7010E9423
:100D20008B0F8FE492E00E948B0FB701CE014396A8
:100D30000E94500362E572E0CE010D960E945003BE
:100D40006CE572E0CE0107960E945003BE01635F1E
:100D50007F4FCE0143960E941103882309F43EC2BF
:100D60002F89388D49895A89BE016D5E7F4FCE012A
:100D700049960E94650365E672E0CE0101960E94E5
:100D80005003BE016F5F7F4FCE0149960E94110351
:100D9000882331F0FF24F3948D8D9E8D099709F0FF
:100DA000F12CCE0101960E944B03FF2009F484C070
:100DB0008D8D9E8D099730F0E98DFA8D309711F069
:100DC000808501C080E091E090939903833309F41A
:100DD00040C0B4F4813361F1823309F040C26091C4
:100DE000700370917103072E000C880B990B0E9401
:100DF0000E1D6B017C011092990389E792E0E2C11C
:100E0000853309F448C0B4F1863309F028C26091F3
:100E1000780370917903072E000C880B990B0E94C0
:100E20000E1D6B017C011092990385EA92E0CAC104
:100E300060916E0370916F03072E000C880B990B65
:100E40000E940E1D6B017C01109299038EE692E0C8
:100E5000B9C16091720370917303072E000C880B67
:100E6000990B0E940E1D6B017C011092990384E87E
:100E700092E0A8C16091740370917503072E000C75
:100E8000880B990B0E940E1D6B017C011092990337
:100E90008FE892E097C16091760370917703072EF7
:100EA000000C880B990B0E940E1D6B017C011092A7
:100EB00099038AE992E086C160EB72E0CE01019667
:100EC0000E945003BE016F5F7F4FCE0149960E9482
:100ED0001103882339F0FF24F3948D8D9E8D07979D
:100EE00009F0F12CCE0101960E944B03FF2009F47A
:100EF000AFC08D8D9E8D079730F0E98DFA8D3097BC
:100F000011F0868101C080E091E0909399038333D2
:100F100009F444C02CF4813361F0823349F19FC15C
:100F2000853309F467C00CF44FC0863309F479C0E7
:100F300096C160916803662391F0062E000C770B32
:100F400060537109072E000C880B990B0E940E1D2F
:100F50006B017C011092990387EB92E033C14091C1
:100F60003F0450914004609141047091420432C1A9
:100F700060916903662399F3062E000C770B60538A
:100F80007109072E000C880B990B0E940E1D6B0136
:100F90007C011092990380EC92E014C160916A0385
:100FA0006623E9F2062E000C770B60537109072EB9
:100FB000000C880B990B0E940E1D6B017C01109296
:100FC000990389EC92E0FEC060916B03662339F2CD
:100FD000062E000C770B60537109072E000C880B4E
:100FE000990B0E940E1D6B017C011092990382EDFA
:100FF00092E0E8C060916C03662309F4B0CF062E3E
:10100000000C770B60537109072E000C880B990BAD
:101010000E940E1D6B017C01109299038BED92E0F2
:10102000D1C060916D03662309F499CF062E000CA0
:10103000770B60537109072E000C880B990B0E94E7
:101040000E1D6B017C011092990384EE92E0BAC0F0
:101050006DEE72E0CE0149960E942C03882359F070
:1010600080E090E00E94E40F0E9428116B017C0157
:1010700089EF92E04FC066E073E0CE0149960E948E
:101080002C03882309F456C080E090E00E94E40F0E
:101090000E9431108823B1F180916A048B3041F1B4
:1010A00088F18551823070F56091640470E080E0D1
:1010B00090E00E940C1D20E030E040E853E40E94E4
:1010C0006D1D6B017C0180916504682F70E080E0EC
:1010D00090E00E940E1D9B01AC01C701B6010E9469
:1010E000FF172DEC3CEC4CEC5DE30E946D1D07C03E
:1010F0006091640470E080E090E00E940C1D6B0140
:101100007C0106C0C12CD12C80ECE82E8FE7F82E94
:101110008FE093E00E947511C701B6010E94BB0ADF
:10112000A7019601C701B6010E94B819882309F4E6
:101130004FC07DC062E373E0CE0149960E942C034C
:10114000882379F086E594E00E94870D20E030E066
:1011500048EC52E40E946D1D6B017C0189E193E033
:1011600031C063E473E0CE0149960E942C038823CA
:1011700009F475C088E494E00E94870D20E030EC0B
:101180004FE754E40E946B1820E030E44CE955E44A
:101190000E946D1D2DEC3CEC4CE950E40E946B1854
:1011A0000E9420192EE83DE543E150E40E946B18AF
:1011B00020E030E040EA51E40E946D1D6B017C01AB
:1011C00081E293E00E947511C701B6010E94BB0A3B
:1011D000B701A601C8010E945F0644C0BE01695F55
:1011E0007F4FCE0143960E941103882309F43FC02C
:1011F0002F89388D4B855C85BE016D5E7F4FCE019A
:1012000049960E94650368E273E0CE0101960E9450
:101210005003BE016F5F7F4FCE0149960E941103BC
:10122000F82ECE0101960E944B03FF2021F0C80149
:101230000E94800D17C069E373E0CE0101960E9401
:101240005003BE016F5F7F4FCE0149960E9411038C
:10125000F82ECE0101960E944B03F110E8CFC80191
:101260000E943C0DCE0149960E944B0303C0C80169
:101270000E943C0DCE0107960E944B03CE010D96B5
:101280000E944B03CE0143960E944B036E960FB60D
:10129000F894DEBF0FBECDBFDF91CF911F910F91AC
:1012A000FF90EF90DF90CF9008950C94310F8F92C4
:1012B0009F92AF92BF92CF92DF92EF92FF920F93E5
:1012C0001F93CF93DF936A01FC01ED5EFE4FC08157
:1012D000D1817B0100E010E00C151D0561F10E9439
:1012E000310F688779878A879B87E881F981028433
:1012F000F385E02DCE01199597FF17C00E94310F9D
:1013000088849984AA84BB84DC01CB01881999095B
:10131000AA09BB098C809D80AE80BF808815990585
:10132000AA05BB0510F3680106C0F70181937F0190
:101330000F5F1F4FD1CFC601DF91CF911F910F914A
:10134000FF90EF90DF90CF90BF90AF909F908F90E5
:101350000895FC01A089B1898C91A689B78982FD85
:101360000FC09C91818D8F5F8F73228D821749F002
:10137000218DDF01A20FB11D5D969C93818F089591
:101380008C910895FC01848DDF01A80FB11DA35A33
:10139000BF4F2C91848D90E001968F739927848F95
:1013A000A689B7892C93A089B1898C9180648C938C
:1013B000938D848D981306C00288F389E02D808177
:1013C0008F7D80830895EF92FF920F931F93CF93A9
:1013D000DF93EC0181E0888F9B8D8C8D981305C085
:1013E000E889F989808185FD24C0F62E0B8D10E0F7
:1013F0000F5F1F4F0F731127E02E8C8DE8120CC06A
:101400000FB607FCFACFE889F989808185FFF5CF0F
:10141000CE010E94C209F1CF8B8DFE01E80FF11DB4
:10142000E35AFF4FF0820B8FEA89FB89808180624B
:1014300007C0EE89FF896083E889F989808180642B
:10144000808381E090E0DF91CF911F910F91FF9019
:10145000EF900895CF93DF93EC01888D8823C9F036
:10146000EA89FB89808185FD05C0A889B9898C91AD
:1014700086FD0FC00FB607FCF5CF808185FFF2CF48
:10148000A889B9898C9185FFEDCFCE010E94C20950
:10149000E7CFDF91CF910895CF93DF931F92CDB720
:1014A000DEB7DC01ED91FC910280F381E02D41E09B
:1014B00050E0BE016F5F7F4F1995019719F4898144
:1014C00090E002C08FEF9FEF0F90DF91CF910895D2
:1014D0008F929F92AF92BF92CF92DF92EF92FF9244
:1014E0000F931F934A015B0168017901DC01ED91C3
:1014F000FC910680F781E02D1995DC01CB0188195C
:101500009909AA09BB0921E0C816D906EA06FB0613
:1015100008F020E0822F1F910F91FF90EF90DF9055
:10152000CF90BF90AF909F908F9008953FB7F89461
:1015300080919E0390919F03A091A003B091A1037D
:1015400026B5A89B05C02F3F19F00196A11DB11D1E
:101550003FBFBA2FA92F982F8827820F911DA11D59
:10156000B11DBC01CD0142E0660F771F881F991F96
:101570004A95D1F708954F925F926F927F928F9222
:101580009F92AF92BF92CF92DF92EF92FF926B0148
:101590007C019B01AC010E94B819882319F089E4F1
:1015A00093E01AC046015701E894B7F82FEF3FEFD8
:1015B0004FE75FE7C501B4010E94B819811110C05F
:1015C0002FEF3FEF4FE75FE7C501B4010E94071D12
:1015D000181634F48DE493E00E948B0F7C018FC0C9
:1015E0002FEF3FEF4FE75FE4C701B6010E941319E9
:1015F00018161CF481E593E0EFCF2FEF3FEF4FE794
:101600005FECC701B6010E94071D87FDF3CF20E004
:1016100030E0A901C701B6010E94071D87FF11C074
:10162000E091A203F091A3030190F081E02D6DE21F
:1016300082EA93E019955C01F7FAF094F7F8F094D8
:1016400002C0A12CB12C2AE037ED43EA5BE3C701CD
:10165000B6010E94FF172B013C010E94E4186B01A8
:101660007C010E940C1D9B01AC01C301B2010E94D0
:10167000FE172B013C014AE0C701B6010E94A011F0
:101680007C01EA0CFB1CE091A203F091A303019002
:10169000F081E02D6EE282EA93E01995E80EF91EE2
:1016A00020E030E040E251E4C301B2010E946D1D30
:1016B0002B013C010E94E4184B01A12CB12C4AE003
:1016C000C501B4010E94A011E80EF91EC501B401C4
:1016D0000E940C1D9B01AC01C301B2010E94FE17C8
:1016E00020E030E040E251E40E946D1D0E94E418C9
:1016F00080E090E04AE00E94A011E80EF91E8FE41D
:1017000092E00E948B0F8E0D9F1DFF90EF90DF9057
:10171000CF90BF90AF909F908F907F906F905F9091
:101720004F900895AF92BF92CF92DF92EF92FF92C7
:101730000F931F93CF93DF9300D000D0CDB7DEB7C8
:101740007C015A018901DE01119685E0FD011192AB
:101750008A95E9F781EB898382E48A836B832C8302
:10176000FA019A01200F311F80E0E217F30719F008
:1017700091918927FACF8E839A81898189279B81CC
:1017800089279C8189279D8189278D83F701808105
:101790009181FC012081318145E050E0BD01C7010C
:1017A000F90119956C01D701ED91FC910190F0813F
:1017B000E02DA801B501C7011995C80ED91ED701A2
:1017C000ED91FC910190F081E02D41E050E0BE01EF
:1017D0006A5F7F4FC7011995C80ED91E0A5F1F4F58
:1017E00081E0C016D10609F080E026960FB6F89485
:1017F000DEBF0FBECDBFDF91CF911F910F91FF9044
:10180000EF90DF90CF90BF90AF9008958F929F920E
:10181000AF92BF92CF92DF92EF92FF920F931F93FE
:10182000CF93DF9300D0CDB7DEB77C01D701ED9128
:10183000FC910480F581E02DC7011995059708F406
:101840007CC0C7010E944C0A813B910579F7C70112
:101850000E944C0A8234910549F7D701ED91FC9121
:101860000280F381E02D43E050E0BE016F5F7F4FC7
:10187000C7011995039709F060C029818A81322F29
:10188000382793EF93273B81931357C0F7012383A6
:1018900090E095838483892B09F44CC00190F081FA
:1018A000E02D0680F781E02DC70119954B015C0101
:1018B000D701ED91FC910480F581E02DC7011995C8
:1018C000F701448155814817590760F000EA1FE08D
:1018D00020E030E0B501A401C7010E94680A882316
:1018E00039F32BC087010A5F1F4F0190F081E02D73
:1018F0000280F381E02DB801C7011995D701149634
:101900002D913C91159782179307A1F4C7010E946E
:101910004C0AF801D70114962D913C911597200F90
:10192000311F90E0E217F30719F041919427FACFA5
:10193000981303C081E0F70182836701F2EFCF1AA9
:10194000FEEFDF0AD6014D915D916D917C9100EA29
:101950001FE020E030E0C7010E94680A8823A9F058
:1019600020E030E040E050E060E0C7010E94920BD0
:10197000D701ED91FC910680F781E02DC701199503
:10198000F6016083718382839383D70112968C91D1
:1019900012978701065F1E4F8823E9F013968C91FA
:1019A0001397811118C0ED91FC910680F781E02D0D
:1019B000C7011995F8016083718382839383D701EE
:1019C00012961C9285E593E00E94751181E0F70163
:1019D000E75FFE4F8083F80140815181628173810E
:1019E00000E41FE120E030E0C7010E94680A88237C
:1019F00021F0F701E75FFE4F108287010E5E1E4F58
:101A0000D8018C91811128C0F7018281882321F1AE
:101A10008381803109F512820480F581E02DEE0D7D
:101A2000FF1D8581811118C020E030E040E050E0CA
:101A300061E1C7010E94920B81E0D8018C93D7012C
:101A4000ED91FC91B7016A5F7F4F0084F185E02D35
:101A5000C7011995F80110820F900F900F90DF9138
:101A6000CF911F910F91FF90EF90DF90CF90BF909B
:101A7000AF909F908F9008958F929F92AF92BF9258
:101A8000EF92FF920F931F93CF93DF93EC0184E0CB
:101A9000E82EF12C81E0E81AF10829F120E030E08D
:101AA00040E050E063E2CE010E94920BE881F981B0
:101AB0000680F781E02DCE0119954B015C0108E805
:101AC00013E120E030E0B501A401CE010E94680AD4
:101AD0008111E0CFCE010E94060C8A81882379F320
:101AE0008B81823161F7DF91CF911F910F91FF9030
:101AF000EF90BF90AF909F908F9008950C943C0D05
:101B000020E030E040E050E062E20C94920BAF92B3
:101B1000BF92CF92DF92EF92FF920F931F93CF93DA
:101B2000DF93FC01008111810115110541F1A280B3
:101B3000B380C0E0D0E0C12CD12C7601CA15DB0502
:101B400091F0F801619171918F0180E090E00E9425
:101B50000C1D9B01AC01C701B6010E94FF176B0170
:101B60007C012196EBCFBE0180E090E00E940C1D2D
:101B70009B01AC01C701B6010E946B1803C060E075
:101B800070E0CB01DF91CF911F910F91FF90EF900B
:101B9000DF90CF90BF90AF9008952F923F924F92D9
:101BA0005F926F927F928F929F92AF92BF92CF92ED
:101BB000DF92EF92FF920F931F93CF93DF93EC018D
:101BC0002A013B0148015901198218821B821A829D
:101BD0001D821C821E821F82188619861A861B8609
:101BE0001C861D86A9019801C301B2010E946D1DCA
:101BF0000E94E4186B017C016115710549F0660FC4
:101C0000771F80E090E00E94EB1B1C01892BD1F034
:101C1000398228821D821C82DB82CA824E825F82C8
:101C2000688679868A869B86AC86BD86F10180E0CF
:101C300090E02A813B818217930720F41192119240
:101C40000196F7CFDF91CF911F910F91FF90EF9009
:101C5000DF90CF90BF90AF909F908F907F906F90CC
:101C60005F904F903F902F90089590E0FC01319746
:101C7000E231F10508F04EC08827EE58FF4F8F4F34
:101C80000C94E217809180008F7703C080918000D0
:101C90008F7D80938000089580918000877FF9CFA9
:101CA00084B58F7702C084B58F7D84BD08958091FF
:101CB000B0008F7703C08091B0008F7D8093B0001B
:101CC0000895809190008F7707C0809190008F7D5C
:101CD00003C080919000877F809390000895809149
:101CE000A0008F7707C08091A0008F7D03C08091F6
:101CF000A000877F8093A0000895809120018F77B6
:101D000007C0809120018F7D03C080912001877FD3
:101D10008093200108951F93CF93DF93282F30E005
:101D2000F901E25BFC4F8491F901E652FC4FD4913A
:101D3000F901EC56FC4FC491CC23C9F0162F811148
:101D40000E94350EEC2FF0E0EE0FFF1FE65EFC4F19
:101D5000A591B4918FB7F894111105C09C91ED2F06
:101D6000E095E92302C0EC91ED2BEC938FBFDF915E
:101D7000CF911F910895CF93DF9390E0FC01E6523D
:101D8000FC4F2491FC01EC56FC4F8491882361F1B7
:101D900090E0880F991FFC01E050FD4FC591D49150
:101DA000FC01E65EFC4FA591B491611109C09FB79B
:101DB000F8948881209582238883EC912E230BC090
:101DC000623061F49FB7F8943881822F8095832325
:101DD0008883EC912E2B2C939FBF06C08FB7F8946D
:101DE000E8812E2B28838FBFDF91CF9108958F92AA
:101DF0009F92AF92BF92CF92DF92EF92FF926B01D0
:101E00007C010E94960A4B015C01C114D104E104DB
:101E1000F104F1F00E94960ADC01CB0188199909BE
:101E2000AA09BB09883E9340A105B10570F321E0E2
:101E3000C21AD108E108F10888EE880E83E0981EE6
:101E4000A11CB11CC114D104E104F10419F7DDCFC8
:101E5000FF90EF90DF90CF90BF90AF909F908F90CA
:101E600008952FB7F89460919A0370919B03809125
:101E70009C0390919D032FBF08958F929F92AF92E4
:101E8000BF92CF92DF92EF92FF92CF93DF93A09118
:101E90006B04882311F03A2F01C030E080916C046C
:101EA00090E0880F991F8C5C9C4FC0907104D0907B
:101EB0007204E0907304F090740440E050E0BA01C2
:101EC000FC01C591D49128812A2323130FC04A0114
:101ED0005B012FEF821A920AA20AB20A4C155D0525
:101EE0006E057F0538F4B501A401EACF342F252F04
:101EF000CB0104C030E020E080E090E0632F722F3F
:101F0000DF91CF91FF90EF90DF90CF90BF90AF9097
:101F10009F908F900895009769F0FC010190002038
:101F2000E9F73197AF01481B590BBC0182EA93E0F6
:101F30000C94460280E090E008950F931F93CF9396
:101F4000DF938C01C0E0D0E0F801EC0FFD1F64913D
:101F5000662371F0E091A203F091A3030190F08158
:101F6000E02D82EA93E01995892B11F02196ECCFB0
:101F7000CE01DF91CF911F910F910895CF93DF9301
:101F80000E949D0FEC018FE492E00E948B0F8C0F5A
:101F90009D1FDF91CF91089580917B00877F809373
:101FA0007B0081E480937C0080917A008064809340
:101FB0007A0080917A0086FDFCCF80917800209194
:101FC000790090E0922B0895CF93DF93EC0162E0CB
:101FD00070E00E94AC17019711F461E001C060E06D
:101FE000809176040E948B0ECE0164E070E00E9426
:101FF000AC17029714F061E001C060E080917804B2
:102000000E948B0E249714F061E001C060E0809183
:102010007A04DF91CF910C948B0ECF93DF93E0E5A0
:10202000F3E08491ECEDF3E0D491E6E9F3E0C491C0
:10203000CC2391F081110E94350EEC2FF0E0EE0FD1
:10204000FF1FEC5CFC4FA591B491EC91ED2381E076
:1020500090E021F480E002C080E090E0DF91CF9139
:102060000895CF92DF92EF92FF920F931F93CF9339
:10207000DF93CDB7DEB7C054D1400FB6F894DEBFC2
:102080000FBECDBF0E94310F00916D0410916E0400
:1020900020916F04309170046B017C01C01AD10A49
:1020A000E20AF30A40EDC41647E0D406E104F10465
:1020B00018F480917504BCC060936D0470936E0435
:1020C00080936F04909370041092680410926704D8
:1020D00010926604109265041092640461E080918D
:1020E00069040E948B0E6AEF70E080E090E00E942D
:1020F000F70E61E0809169040E94BB0E60E0809160
:1021000069040E948B0E64E170E080E090E00E9420
:10211000F70EF89461E0809169040E948B0E8BE9C0
:1021200090E00197F1F762E0809169040E94BB0E94
:1021300083E290E00197F1F780E00E943D0F672B6A
:10214000682B692B21F41092750478943EC081E0CD
:102150000E943D0F672B682B692BA9F38E010F5F3F
:102160001F4F6E018FEBC81A8EEFD80A780180E0FE
:102170000E943D0FF701608371838283938381E026
:102180000E943D0FF7016483758386839783F8E08F
:10219000EF0EF11CEC14FD0451F7789420E030E0D0
:1021A000F8014081518162817381C480D580E680CD
:1021B000F780411551056105710529F0C114D1045D
:1021C000E104F10421F41092750480E031C0F901BA
:1021D00083E0F595E7958A95E1F7EC59FB4F80810F
:1021E000880F4C155D056E057F0508F481608083BE
:1021F0002F5F3F4F085F1F4F2832310589F620912E
:10220000680430E0409164048091650490E0840F9C
:10221000911D40916604840F911D40916704840FC5
:10222000911D99272817390771F681E0809375046D
:10223000C05CDE4F0FB6F894DEBF0FBECDBFDF919E
:10224000CF911F910F91FF90EF90DF90CF90089565
:10225000CF92DF92EF92FF92CF930E9431108823AA
:10226000D1F180916A048B3029F0A8F18551823038
:1022700048F031C06091660470E080E090E00E9418
:102280000C1D2DC0C09166046C2F6F7770E080E04C
:1022900090E00E940E1D20E030E040E853E40E94F0
:1022A0006D1D6B017C0180916704682F70E080E0F8
:1022B00090E00E940E1D9B01AC01C701B6010E9477
:1022C000FF172DEC3CEC4CEC5DE30E946D1DC7FF4D
:1022D00006C0905804C060E070E080EC9FE7CF91AA
:1022E000FF90EF90DF90CF9008950C948B0F0F9399
:1022F0001F93CF93DF93D82FC8E00BE410E0D7FFF4
:1023000002C061E001C060E0809144040E948B0E35
:1023100060E0809143040E948B0EC8010197F1F7A1
:1023200061E0809143040E948B0EC8010197F1F790
:10233000DD0FC15021F7DF91CF911F910F910895CB
:102340008F929F92AF92BF920F931F93CF93DF9381
:10235000CDB7DEB7A1970FB6F894DEBF0FBECDBFE5
:1023600019A2423008F44AE08E010F5D1F4F842EFF
:10237000912CA12CB12CA50194010E94C017E62F2D
:10238000B901CA0101501109EA3014F4E05D01C03D
:10239000E95CD801EC93232B242B252B61F7C80192
:1023A0000E948B0FA1960FB6F894DEBF0FBECDBF73
:1023B000DF91CF911F910F91BF90AF909F908F9021
:1023C0000895CF93DF93CDB7DEB765970FB6F89436
:1023D000DEBF0FBECDBF789484B5826084BD84B566
:1023E000816084BD85B5826085BD85B5816085BD10
:1023F00080916E00816080936E00109281008091C8
:10240000810082608093810080918100816080934F
:102410008100809180008160809380008091B10074
:1024200084608093B1008091B00081608093B0009F
:1024300080919100826080939100809191008160F1
:1024400080939100809190008160809390008091B2
:10245000A10082608093A1008091A100816080939F
:10246000A1008091A00081608093A0008091210153
:1024700082608093210180912101816080932101FC
:102480008091200181608093200180917A00846096
:1024900080937A0080917A00826080937A008091A4
:1024A0007A00816080937A0080917A0080688093BE
:1024B0007A001092C100E091B203F091B30302E000
:1024C0000083E091AE03F091AF031082E091B0037E
:1024D000F091B1038FEC80831092BA03E091B603C0
:1024E000F091B70316E01083E091B403F091B503C7
:1024F000808180618083E091B403F091B503808195
:1025000088608083E091B403F091B5038081806896
:102510008083E091B403F091B50380818F7D808347
:102520008FE492E00E948B0F89E892E00E94BE0F38
:102530008CE592E00E94BE0F8FE292E00E94BE0FF7
:1025400082EA93E00E942A0AE0912C06F0912D067F
:10255000A089B1890C93A485B5851C92A685B78501
:1025600088E08C93108EA489B5891C93A289B389C5
:102570008C9180618C93A289B3898C9188608C93B3
:10258000A289B3898C9180688C930288F389E02DAD
:1025900080818F7D808361E0809143040E94BB0E27
:1025A00061E0809144040E94BB0E10E080914504DC
:1025B000181708F06BC080E00E94771180E00E943D
:1025C000771180E00E94771180E00E94771123E06C
:1025D000129F5001112475013FEFE31AF30A6501C0
:1025E00042E0C40ED11C00E080914504081708F0B9
:1025F0003FC0011315C0E0914604F0914704EA0D75
:10260000FB1D1082E0914604F0914704EE0DFF1D82
:102610001082E0914604F0914704EC0DFD1D1082FC
:10262000E0914604F091470453E0059FE00DF11D51
:10263000112472808180908077FC02C080EE01C0FE
:1026400080EC76FE806187FE886086FE846097FE5F
:10265000826096FE81600E947711872D0E9477111B
:10266000882D0E947711892D0E9477110F5FBCCFB2
:1026700080E00E94771180E00E94771180E00E9444
:10268000771180E00E9477111F5F90CF60ED77E0B7
:1026900080E090E00E94F70E62E0809169040E9461
:1026A000BB0E80E398EFAFEFBFEF80936D04909384
:1026B0006E04A0936F04B093700460E082E00E9407
:1026C000BB0E88E596E09093010280930002809112
:1026D0006A008C7F816080936A00EC9A10928F036D
:1026E00010927B0310927A0310927D0310927C0368
:1026F00010927F0310927E03109281031092800348
:102700001092830310928203109285031092840327
:1027100083E3809368038093690380936A038093C3
:102720006B0380936C0380936D0361E084E00E94EF
:10273000BB0E61E085E00E94BB0E61E086E00E9476
:10274000BB0E60E087E30E94BB0E60E087E30E945F
:10275000BB0E82EA93E00E942A0A8EE092E00E9479
:10276000BE0F3EEFE32EF12CCE010A969B878A879F
:1027700089E195E00E94060C84EC92E00E94BE0F75
:10278000F0926F03E0926E03F0927103E092700397
:10279000F0927303E0927203F0927503E092740377
:1027A000F0927703E0927603F0927903E092780357
:1027B000AEE6B3E0BD8BAC8B6D0101E010E0C8016B
:1027C0000E94E40F22E3A22EB12C412C512C3201A5
:1027D0000E94CC0FBC01990F880B990B0E940E1D13
:1027E00020E030E040EA50E40E946D1D20E030EC33
:1027F0004FE754E40E946B1821EC3AEC41E95FEB9F
:102800000E94681928EF33E54AEC51E40E946D1DDF
:102810009B01AC01C301B2010E94FF172B013C01D7
:10282000B1E0AB1AB108A1F620E030E048E452E490
:102830000E946B184B015C0120E030E046E153E45C
:102840000E941319181694F0A5019401C501B40152
:102850000E94B819882381F020E030E0A901C50169
:10286000B4010E94131918163CF00DC0812C912C54
:1028700096E1A92E93E4B92EC501B4010E94E41893
:10288000F601718360830F5F1F4FF2E0CF0ED11C02
:102890000730110509F093CF80E090E00E94E40F2B
:1028A0000E9428114B015C010E94DD182B013C01A4
:1028B000798B688B072E000C880B990B0E940E1DDC
:1028C0009B01AC01C501B4010E94FE1720E030E07D
:1028D00040E05FE30E94131987FD05C092012F5F5E
:1028E0003F4F398B288BBAE72B2EB3E03B2E46E1C6
:1028F00052E05D874C8700E010E0812C912CCC24C5
:10290000C394D12CA889B989CD01A0E0B0E0888B0F
:10291000998BAA8BBB8BC6010E94E40FAAE0AA2E5A
:10292000B12C0E94CC0F080F191FB1E0AB1AB108EF
:10293000C1F7C8016AE070E00E94AC178B01072E56
:10294000000C880B990B0E940E1D2B013C019B0172
:10295000AC010E94B819882321F0101611060CF062
:102960005DC0560131E0A31AB108688979898A8966
:102970009B890E940C1D22E430E645E65CE30E9440
:102980006D1DAC85BD852D913D914D915C910E9451
:10299000FF1720E030E045E553E40E946D1D9B01E8
:1029A000AC01C301B2010E94131987FDD1C1F1012D
:1029B00080819181833091050CF0CAC10196918389
:1029C0008083D1018D919C9197FD28C0B501BB0CEE
:1029D000880B990B0E940E1D9B01AC0160E070E01A
:1029E00080E090E40E9468192B013C01B40180E072
:1029F00090E00E940C1D4B015C0120E030E040E0C3
:102A00005FE3C301B2010E94FF179B01AC01C50146
:102A1000B4010E94FF170E94E4184B01BFEFCB1ACC
:102A2000DB0AE2E02E0E311C2C853D852C5F3F4FEA
:102A30003D872C8737E0C316D10409F06CCF809115
:102A40006603909167038F3F910521F0892B21F058
:102A500083E003C081E001C082E0509170035F5FBA
:102A6000409172034F5F309174033F5F2091760372
:102A70002F5F909178039F5F60916E036F5F698312
:102A80005A834B833C832D839E8391E0980D9F83D3
:102A90008F5F88878FEF8987AE014F5F5F4FE6E8D2
:102AA000F3E0CF01DA012D91AD01DC012D93CD01D1
:102AB0002A853B8542175307A9F780918F0381111F
:102AC00015C066E873E08FE893E00E94F21C87EB84
:102AD00092E00E94BE0F08E613E0C12CD12C71E3F6
:102AE000B72EE2E3AE2EF0E37F2E70C0AFE8B3E086
:102AF0008D91803574F020812135E4F4082E000C8E
:102B0000990B0E97022E000C330B2817390794F4FB
:102B1000D8CF082E000C990B2081022E000C330B0D
:102B2000AC014E505109241735075CF20E968217FE
:102B300093073CF2319633E0EB38F307C9F69091F6
:102B40008C03809195039813BCCF90918D0391785D
:102B500097FF03C091509E6F9F5F8091960381788D
:102B600087FF03C081508E6F8F5F9813AACF80902C
:102B70005C0490905D04A0905E04B0905F0420E03F
:102B800030E0A901C501B4010E94071D81113CC0BC
:102B9000412C512C60EC662E6FE7762E3FC020E072
:102BA00030E040E05FE30E94FF170E94DD186821DB
:102BB0007921672B31F1D801AC92FFEFCF1ADF0AF0
:102BC0000F5F1F4F26E0C216D10489F2B6010D2C0B
:102BD000000C880B990B0E940E1D9B01AC0160E05C
:102BE00070E080E090E40E946819AC89BD892D9165
:102BF0003D91BD8BAC8B2734310588F2F801708292
:102C0000DCCFF801B082D9CFA501940160E070E07B
:102C100080E89FE30E946B182B013C010E94310F5A
:102C20004B015C0180912E0690912F06A0913006F9
:102C3000B0913106A5019401281B390B4A0B5B0B9F
:102C40002C873D874E875F8720E030E04AE754E4D9
:102C5000C301B2010E946D1D0E94E4182C853D85C0
:102C60004E855F85261737074807590708F462C065
:102C700080922E0690922F06A0923006B0923106D6
:102C80000E940D10209156043091570421153105F2
:102C900011F160915A0470915B0440915804509175
:102CA00059046417750720F010925B0410925A04BF
:102CB000E0915A04F0915B04EE0FFF1FE20FF31F47
:102CC0009183808380915A0490915B040196909344
:102CD0005B0480935A0480E090E00E94E40F0E941D
:102CE000CC0F20914804309149042115310511F190
:102CF00060914C0470914D0440914A0450914B04F2
:102D00006417750720F010924D0410924C04E09166
:102D10004C04F0914D04EE0FFF1FE20FF31F91835F
:102D2000808380914C0490914D04019690934D04C2
:102D300080934C0480912206882319F085EE92E05E
:102D400002C088ED92E00E94BE0F0E940B0610CDDB
:102D5000D1018D919C918E3FBFEF9B070CF431CE3A
:102D60000197F1012CCE80914604909147040C9478
:102D7000531B0F931F93CF93DF93CCE7D4E01B82B9
:102D80001A8248EE53E060E070E04C835D836E830E
:102D90007F8382E392E0998388832DEC30E03D8746
:102DA0002C872CEC30E03F872E8728EC30E0398BE5
:102DB000288B29EC30E03B8B2A8B2AEC30E03D8BD2
:102DC0002C8B2EEC30E03F8B2E8B198E1A8E1B8EA7
:102DD0001C8EE2EAF3E013821282448355836683F9
:102DE00077839183808385EC90E09587848784EC5A
:102DF00090E09787868780EC90E0918B808B81ECC8
:102E000090E0938B828B82EC90E0958B848B86ECA8
:102E100090E0978B868B118E128E138E148EE6E7C0
:102E2000F4E084E090E09183808385E090E09383F8
:102E3000828386E090E09583848360E084E00E9452
:102E40008B0E60E085E00E948B0E60E086E00E94C1
:102E50008B0EA4E6B4E086E315968C93159786E175
:102E600016968C931697E0E1F4E0E4911796EC93B4
:102E70001797EAECF3E0E4911896EC93189740E882
:102E80005EE360E070E01D964D935D936D937C93DF
:102E9000509700E010E020EF31E440E050E060E8BF
:102EA00070E486E594E00E94CD0D00E010E020EF94
:102EB00031E440E050E060E870E488E494E00E948F
:102EC000CD0D03E414E087E0F801808388E081837E
:102ED00086E0828361E070E082E190E00E94A21AC5
:102EE000F8019483838380E090E0A0E4B0E48093D1
:102EF0003F0490934004A0934104B0934204E9E15D
:102F0000F5E01092270610922806109229061092DA
:102F10002A0610922306109224061092250610927B
:102F20002606109222061582148210922B0685E442
:102F300092E091838083D0932D06C0932C0610924B
:102F40002E0610922F061092300610923106DF9155
:102F5000CF911F910F91089597FB072E16F40094BF
:102F600007D077FD09D00E94EA1707FC05D03EF490
:102F7000909581959F4F0895709561957F4F089525
:102F8000A1E21A2EAA1BBB1BFD010DC0AA1FBB1F6D
:102F9000EE1FFF1FA217B307E407F50720F0A21BDF
:102FA000B30BE40BF50B661F771F881F991F1A944C
:102FB00069F760957095809590959B01AC01BD0176
:102FC000CF010895EE0FFF1F881F8BBF0790F6916A
:102FD000E02D1994AA1BBB1B51E107C0AA1FBB1F00
:102FE000A617B70710F0A61BB70B881F991F5A9595
:102FF000A9F780959095BC01CD0108955058BB2745
:10300000AA270E9416180C94F11D0E94E31D38F0A7
:103010000E94EA1D20F039F49F3F19F426F40C9425
:10302000E01D0EF4E095E7FB0C94DA1DE92F0E94F9
:10303000021E58F3BA17620773078407950720F03A
:1030400079F4A6F50C94241E0EF4E0950B2EBA2FFD
:10305000A02D0B01B90190010C01CA01A00111249E
:10306000FF27591B99F0593F50F4503E68F11A164A
:10307000F040A22F232F342F4427585FF3CF4695DB
:1030800037952795A795F0405395C9F77EF41F16FD
:10309000BA0B620B730B840BBAF09150A1F0FF0FC7
:1030A000BB1F661F771F881FC2F70EC0BA0F621FB3
:1030B000731F841F48F4879577956795B795F795A3
:1030C0009E3F08F0B0CF9395880F08F09927EE0F38
:1030D0009795879508950E947F180C94F11D0E9482
:1030E000EA1D58F00E94E31D40F029F45F3F29F0EB
:1030F0000C94DA1D51110C94251E0C94E01D0E94B5
:10310000021E68F39923B1F3552391F3951B550BD8
:10311000BB27AA2762177307840738F09F5F5F4FAA
:10312000220F331F441FAA1FA9F335D00E2E3AF0E9
:10313000E0E832D091505040E695001CCAF72BD001
:10314000FE2F29D0660F771F881FBB1F2617370752
:103150004807AB07B0E809F0BB0B802DBF01FF2784
:1031600093585F4F3AF09E3F510578F00C94DA1D6A
:103170000C94251E5F3FE4F3983ED4F38695779533
:103180006795B795F7959F5FC9F7880F911D96953D
:10319000879597F90895E1E0660F771F881FBB1F99
:1031A000621773078407BA0720F0621B730B840B46
:1031B000BA0BEE1F88F7E09508950E94E418689412
:1031C000B1110C94251E08950E940A1E88F09F5785
:1031D00098F0B92F9927B751B0F0E1F0660F771F3B
:1031E000881F991F1AF0BA95C9F714C0B13091F031
:1031F0000E94241EB1E008950C94241E672F782F9E
:103200008827B85F39F0B93FCCF3869577956795F5
:10321000B395D9F73EF490958095709561957F4F61
:103220008F4F9F4F08950E94491D08F48FEF089516
:1032300016F00C94F7190C94E01D68940C94DA1DA8
:103240000E940A1EA8F39923C1F3AEF3DF93CF9334
:103250001F930F93FF92C92FDD2788232AF0219710
:10326000660F771F881FDAF720E030E040E85FEB59
:103270009FE3883920F0803E38F021968F770E94B6
:10328000FF17E8E0F1E004C00E94FF17E5E3F1E07A
:103290000E94051A8B01BE01EC01FB2E6F577109CC
:1032A0007595771F880B990B0E940E1D28E132E758
:1032B00041E35FE30E94801DAF2D9801AE01FF90B6
:1032C0000F911F91CF91DF910E9416180C94F11D60
:1032D000FA01EE0FFF1F309621053105A1F16115AE
:1032E000710561F48038BFE39B0749F16894903819
:1032F000810561F08038BFEF9B0741F099234AF5C3
:10330000FF3FE1053105210519F1E8940894E7959F
:10331000D901AA2329F4AB2FBE2FF85FD0F310C038
:10332000FF5F70F4A695E0F7F73950F019F0FF3A17
:1033300038F49F779F930DD00F9007FC9058089515
:1033400046F00C94E01D60E070E080E89FE3089593
:103350004FE79F775F934F933F932F930E942019DE
:103360002F913F914F915F910E946D1D0C94C51953
:103370000E94491D880B990B089529F416F00C94AE
:10338000DA1D0C94241E0C94E01D0E940A1EA8F362
:103390009638A0F707F80F92E8942BE33AEA48EB47
:1033A0005FE70E94831D0F920F920F924DB75EB799
:1033B0000F920E946E1AE2E6F1E00E94051A4F9108
:1033C0005F91EF91FF91E595EE1FFF1F49F0FE57CA
:1033D000E0684427EE0F441FFA95E1F74195550B3D
:1033E0000E94381A0F9007FE0C942C1A08959F3FE4
:1033F00031F0915020F4879577956795B795880FB0
:10340000911D9695879597F90895DF93CF931F9314
:103410000F93FF92EF92DF927B018C01689406C0BC
:10342000DA2EEF010E94801DFE01E894A5912591FE
:10343000359145915591A6F3EF010E941618FE01B2
:103440009701A801DA9469F7DF90EF90FF900F9150
:103450001F91CF91DF9108959B01AC0160E070E076
:1034600080E89FE30C946B180C94DA1D0C94F71908
:103470000E940A1ED8F39923C9F3940F511DA3F398
:103480009150504094F059F0882332F0660F771F26
:10349000881F91505040C1F79E3F51052CF7880F6F
:1034A000911D9695879597F908955F3FACF0983EEA
:1034B0009CF0BB27869577956795B79508F4B16022
:1034C0009395C1F7BB0F58F711F460FFE8CF6F5F1A
:1034D0007F4F8F4F9F4FE3CF0C94251EFA01DC01E5
:1034E000AA0FBB1F9B01AC01BF5728F4222733272B
:1034F0004427507820C0B75190F4AB2F0024469554
:1035000037952795011CA395D2F3002071F0220F67
:10351000331F441FB395DAF30ED00C94FE176130BD
:103520007105A0E88A07B94630F49B01AC01662713
:10353000772788279078309621F020833183428343
:10354000538308950F931F93CF93DF93869F80013A
:10355000879F100D969F100D1124C8010E94BE1A5E
:10356000EC01009729F0A80160E070E00E94E21CE5
:10357000CE01DF91CF911F910F910895CF93DF93EB
:103580008230910510F482E090E0E0913406F091F1
:10359000350620E030E0C0E0D0E0309711F1408106
:1035A000518148175907C0F04817590761F48281C3
:1035B0009381209719F09B838A832BC090933506C3
:1035C0008093340626C02115310519F042175307A0
:1035D00018F49A01BE01DF01EF010280F381E02DB2
:1035E000DCCF2115310509F1281B390B24303105B9
:1035F00090F412968D919C9113976115710521F0AD
:10360000FB019383828304C0909335068093340634
:10361000FD01329644C0FD01E20FF31F81939193A7
:10362000225031092D933C933AC0209132063091BB
:103630003306232B41F42091120230911302309370
:103640003306209332062091100230911102211589
:10365000310541F42DB73EB7409114025091150247
:10366000241B350BE0913206F0913306E217F30785
:10367000A0F42E1B3F0B2817390778F0AC014E5FE2
:103680005F4F2417350748F04E0F5F1F50933306E6
:10369000409332068193919302C0E0E0F0E0CF01C5
:1036A000DF91CF9108950F931F93CF93DF930097EE
:1036B00009F48CC0FC013297138212820091340607
:1036C000109135060115110581F420813181820F99
:1036D000931F20913206309133062817390779F568
:1036E000F0933306E093320671C0D80140E050E019
:1036F000AE17BF0750F412962D913C911397AD0170
:103700002115310509F1D901F3CF9D01DA01338388
:10371000228360817181860F971F8217930769F456
:10372000EC0128813981260F371F2E5F3F4F3183EF
:1037300020838A819B8193838283452B29F4F09394
:103740003506E093340642C01396FC93EE9312972D
:10375000ED01499159919E01240F351FE217F3079E
:1037600071F480819181840F951F029611969C932C
:103770008E938281938113969C938E931297E0E0AF
:10378000F0E0D80112968D919C911397009719F053
:10379000F8018C01F6CF8D919C9198012E5F3F4FDF
:1037A000820F931F20913206309133062817390774
:1037B00069F4309729F4109235061092340602C04D
:1037C000138212821093330600933206DF91CF9159
:1037D0001F910F9108956F927F928F929F92AF9257
:1037E000BF92CF92DF92EF92FF920F931F93CF93EE
:1037F000DF93EC01009789F4CB01DF91CF911F910A
:103800000F91FF90EF90DF90CF90BF90AF909F907F
:103810008F907F906F900C94BE1AFC01E60FF71FFB
:103820009C0122503109E217F30708F4ACC0D9011A
:103830000D911C91119706171707B0F0053011056F
:1038400008F49FC0C80104978617970708F499C029
:1038500002501109061B170B019311936D937C9372
:10386000CF010E94531B8DC05B01A01AB10A4C010D
:10387000800E911EA0913406B091350640E050E0D4
:10388000E12CF12C109709F44AC0A815B905D1F51F
:103890006D907C901197630182E0C80ED11CCA1410
:1038A000DB0480F1A3014A195B096A0182E0C80EBA
:1038B000D11C1296BC9012971396AC91B5E0CB1622
:1038C000D10440F0B282A38351834083D9016D9328
:1038D0007C930AC00E5F1F4FC301800F911FF90137
:1038E00091838083EB2DFA2FE114F10431F0D7019D
:1038F0001396FC93EE93129744C0F0933506E09331
:1039000034063FC08D919C9111974817590708F4D0
:10391000AC017D0112960D90BC91A02DB3CF80918A
:1039200032069091330688159905E1F4461757073A
:10393000C8F48091100290911102009741F48DB764
:103940009EB74091140250911502841B950BE81705
:10395000F907C8F4F0933306E0933206F901718356
:1039600060830FC0CB010E94BE1A7C01009759F002
:10397000A801BE010E94D91CCE010E94531BC701A1
:1039800004C0CE0102C080E090E0DF91CF911F9192
:103990000F91FF90EF90DF90CF90BF90AF909F90EE
:1039A0008F907F906F90089581E090E0F8940C9450
:1039B0002B1EFB01DC0102C001900D9241505040D2
:1039C000D8F70895DC0101C06D9341505040E0F7F5
:1039D0000895FB01DC018D91019080190110D9F34C
:1039E000990B0895FB01DC0101900D920020E1F795
:1039F0000895FB01DC014150504030F08D91019061
:103A0000801919F40020B9F7881B990B08950E94BA
:103A1000491D08F481E00895E89409C097FB3EF43D
:103A200090958095709561957F4F8F4F9F4F99230B
:103A3000A9F0F92F96E9BB279395F6958795779589
:103A40006795B795F111F8CFFAF4BB0F11F460FF49
:103A50001BC06F5F7F4F8F4F9F4F16C0882311F0A1
:103A600096E911C0772321F09EE8872F762F05C0B5
:103A7000662371F096E8862F70E060E02AF09A9550
:103A8000660F771F881FDAF7880F9695879597F945
:103A90000895990F0008550FAA0BE0E8FEEF1616DF
:103AA0001706E807F907C0F012161306E407F50732
:103AB00098F0621B730B840B950B39F40A2661F0A6
:103AC000232B242B252B21F408950A2609F4A14049
:103AD000A6958FEF811D811D08950E94801D0C9475
:103AE000F11D0E94E31D38F00E94EA1D20F095238D
:103AF00011F00C94DA1D0C94E01D11240C94251E79
:103B00000E94021E70F3959FC1F3950F50E0551F60
:103B1000629FF001729FBB27F00DB11D639FAA2722
:103B2000F00DB11DAA1F649F6627B00DA11D661F71
:103B3000829F2227B00DA11D621F739FB00DA11D92
:103B4000621F839FA00D611D221F749F3327A00D4C
:103B5000611D231F849F600D211D822F762F6A2FE8
:103B600011249F5750409AF0F1F088234AF0EE0F4D
:103B7000FF1FBB1F661F771F881F91505040A9F77A
:103B80009E3F510580F00C94DA1D0C94251E5F3F7A
:103B9000E4F3983ED4F3869577956795B795F795B6
:103BA000E7959F5FC1F7FE2B880F911D969587952E
:103BB00097F9089597F99F6780E870E060E00895AD
:103BC0009FEF80EC089500240A9416161706180635
:103BD0000906089500240A94121613061406050611
:103BE0000895092E0394000C11F4882352F0BB0FA2
:103BF00040F4BF2B11F460FF04C06F5F7F4F8F4F05
:103C00009F4F089557FD9058440F551F59F05F3F3F
:103C100071F04795880F97FB991F61F09F3F79F0EE
:103C200087950895121613061406551FF2CF469570
:103C3000F1DF08C0161617061806991FF1CF8695F2
:103C40007105610508940895E894BB2766277727D6
:103C5000CB0197F9089512E0C1E1D2E000E006C07F
:103C6000802FFE010E94E2172196011DC231D1076B
:0A3C700080E00807A9F7F894FFCFE1
:103C7A004502450245024502450245024502450202
:103C8A00000036068000AE47A13F1F85AB3F1F8567
:103C9A00AB3F7B14AE3F7B14AE3F1F85AB3F0000AA
:103CAA000000E3094602CE052A0AFF05DD05F105F3
:103CBA0033000000004C0657094006550978060DE6
:103CCA000A0073656E736F72733A3A00636F6E66B9
:103CDA0069673A3A0064697374616E63650064697E
:103CEA007374616E6365313A0064697374616E63FB
:103CFA0065323A0064697374616E6365333A0064CD
:103D0A00697374616E6365343A0064697374616ED1
:103D1A006365353A0064697374616E6365363A00A7
:103D2A0073746174757300737461747573313A00D6
:103D3A00737461747573323A007374617475733392
:103D4A003A00737461747573343A007374617475EC
:103D5A0073353A00737461747573363A0074656D1D
:103D6A0070657261747572650054656D7065726113
:103D7A00747572653A0068756D696469747900488A
:103D8A00756D69646974793A004D6F74696F6E3A3A
:103D9A0000536F756E643A0072656164696E677389
:103DAA003A3A6D6F74696F6E0072656164696E6725
:103DBA00733A3A736F756E64006E616E00696E666F
:103DCA00006F7666007061636B6574206865617266
:063DDA007462206F6B0013
:00000001FF
