:100000000C9412020C94D1080C94A6080C947B0852
:100010000C9450080C9425080C94FA070C94CF0704
:100020000C94A4070C9443020C9443020C944302D6
:100030000C9443020C9443020C9443020C9443022C
:100040000C9443020C9443020C9443020C9443021C
:100050000C9443020C9443020C9443020C94030C42
:100060000C9443020C947A090C9450090C944302AA
:100070000C9443020C9443020C9443020C944302EC
:100080000C9443020C9443020C9443020C944302DC
:100090000C9426090C94FC080C9443020C94430223
:1000A0000C9443020C9443020C9443020C944302BC
:1000B0000C9443020C9443020C9443020C944302AC
:1000C0000C9443020C9443020C9443020C9443029C
:1000D0000C9443020C9443020C9443020C9443028C
:1000E0000C944302BF09C209B109B509BB09F9095A
:1000F000C609CA09D009D409D809DE09E209E60906
:10010000F909EC09F009F40907634236B79BD8A74F
:100110001A39685618AEBAAB558C1D3CB7CC57632C
:10012000BD6DEDFD753EF6177231BF000000803FDA
:1001300008000000BE922449123EABAAAA2ABECDF6
:10014000CCCC4C3E00000080BEABAAAAAA3E000068
:100150000000BF000000803F000000000008417860
:10016000D3BB4387D1133D190E3CC3BD4282AD2B97
:100170003E68EC8276BED98FE1A93E4C80EFFFBE8F
:1001800001C4FF7F3F00000000000C9446020C9465
:10019000B1020C94F5030C94BB090C9445020C9429
:1001A000B5090C94D4090C94EC090C94CA090C946C
:1001B000F4090C9447030C9400030C9473120C94F0
:1001C000C6090C94D8090C94BF020C94E2090C9453
:1001D000F9090C94BF040C9429160C94DE090C94B4
:1001E000AA030C94D0090C949E030C94E6090C9479
:1001F000C2090C94F0090C94BF090C9418040C94D7
:10020000B1090C949D020C9416040C948E02496E54
:10021000636F6D696E672071756572793A2000535E
:1002200074617274696E6720696E7465727161724F
:10023000706520696E746572666163652E2E2E008E
:100240002D2D2D2D2D2D2D2D2D2D2D2D2D2D2D2DDE
:100250002D2D2D2D2D2D2D2D2D2D2D2D2D2D2D2DCE
:100260002D2D2D2D2D2D2D2D2D2D2D2D007C205185
:10027000415250454449454D202D20436F6E6E65D7
:1002800063746564205461626C652053656E736F9E
:100290007220426F617264207C002D2D2D2D2D2D3A
:1002A0002D2D2D2D2D2D2D2D2D2D2D2D2D2D2D2D7E
:1002B0002D2D2D2D2D2D2D2D2D2D2D2D2D2D2D2D6E
:1002C0002D2D2D2D2D2D2D00476F7420616E206555
:1002D00076656E74003D3D53656E736F7273207268
:1002E0006F7574696E653D3D00444953434F4E4EF2
:1002F000454354454400434F4E4E45435445440006
:1003000000002100240027002A002D0030003300C7
:1003100001010000040107010A010000220025007C
:1003200028002B002E0031003400020100000501DE
:1003300008010B0100000A0B02090C0D0E0807034F
:1003400004010000000000000000000000000000A8
:10035000000000000000000000000000000000009D
:10036000121110000000000000000000000000005A
:10037000000000000000000000000000200023003A
:10038000260029002C002F0032000001000003018C
:100390000601090105050505070508080808020208
:1003A00002020A0A0808040404040101010101010F
:1003B00001010303030303030303040707070C0CF2
:1003C0000C0C0C0C0C0C02020202060606060606B9
:1003D00006060B0B0B0B0B0B0B0B0102102020085E
:1003E0000810204010204080020102010804020190
:1003F00001020408102040808040201008040201FF
:100400008004020180402010080402010804020157
:1004100001020408102040800102040810204080DE
:100420002916731211241FBECFEFD1E2DEBFCDBF5C
:1004300000E00CBF13E0A0E0B2E0EAE5FBE300E07F
:100440000BBF02C007900D92AE34B107D9F726E07A
:10045000AEE4B3E001C01D92AE31B207E1F712E0A5
:10046000C1E1D2E000E006C021970109802FFE0122
:100470000E945217C031D10780E00807A9F70E94F7
:1004800079120C949B1D0C9400000895CF92DF927A
:10049000EF92FF920F931F93CF93DF936C017A013A
:1004A0008B01C0E0D0E0CE15DF0589F0D8016D9159
:1004B0008D01D601ED91FC910190F081E02DC601F6
:1004C0001995892B11F47E0102C02196ECCFC7014A
:1004D000DF91CF911F910F91FF90EF90DF90CF9020
:1004E0000895FC01A089B1898C91A689B78982FD04
:1004F0000FC09C91818D8F5F8F73228D821749F081
:10050000218DDF01A20FB11D5D969C93818F08950F
:100510008C910895089580E090E00895FC01538D3A
:10052000448D252F30E0842F90E0821B930B5417CD
:1005300010F0CF96089501970895FC01918D828D5A
:10054000981761F0828DDF01A80FB11D5D968C9127
:10055000928D9F5F9F73928F90E008958FEF9FEF32
:100560000895FC01918D828D981731F0828DE80FEE
:10057000F11D858D90E008958FEF9FEF0895FC01A8
:10058000918D228D892F90E0805C9F4F821B910975
:100590008F739927089584E694E00E94BF0221E0BA
:1005A000892B09F420E0822F08958AE893E00E94C5
:1005B000BF0221E0892B09F420E0822F0895FC017D
:1005C000848DDF01A80FB11DA35ABF4F2C91848DDC
:1005D00090E001968F739927848FA689B7892C9311
:1005E000A089B1898C9180648C93938D848D9813AC
:1005F00006C00288F389E02D80818F7D8083089575
:10060000EF92FF920F931F93CF93DF93EC0181E062
:10061000888F9B8D8C8D981305C0E889F98980811E
:1006200085FD24C0F62E0B8D10E00F5F1F4F0F735A
:100630001127E02E8C8DE8120CC00FB607FCFACF04
:10064000E889F989808185FFF5CFCE010E94DF021C
:10065000F1CF8B8DFE01E80FF11DE35AFF4FF082C1
:100660000B8FEA89FB898081806207C0EE89FF8950
:100670006083E889F98980818064808381E090E0EB
:10068000DF91CF911F910F91FF90EF900895CF933D
:10069000DF93EC01888D8823C9F0EA89FB8980818A
:1006A00085FD05C0A889B9898C9186FD0FC00FB65C
:1006B00007FCF5CF808185FFF2CFA889B9898C919D
:1006C00085FFEDCFCE010E94DF02E7CFDF91CF9112
:1006D000089580E090E0892B21F00E94D5028111DD
:1006E00021C080E090E0892B21F00E94CB02811193
:1006F0001CC080E090E0892B41F080E090E0892BE5
:1007000021F00E940000811113C080E090E0892B4D
:10071000A1F080E090E0892B81F00E94000081111F
:100720000AC008950E940000DCCF0E940000E1CFC3
:100730000E940000EACF0C9400000895FC01ED5ED9
:10074000FE4F80819181DC01ED91FC910084F18567
:10075000E02D1994FC01ED5EFE4F80819181DC015A
:10076000ED91FC910280F381E02D1994FB0144810D
:100770005581FC01248135812417350778F080816B
:100780009181009759F0FB016081718161157105BC
:1007900029F00E94691C21E0892B09F020E0822FBA
:1007A0000895FC0124813581232B31F421E061156A
:1007B0007105A1F0FB0108C0FC01808191816115E8
:1007C000710531F421E0FC018081882339F005C0F6
:1007D0000E94591C21E0892B09F020E0822F089506
:1007E000FC01808191810C94C31A82E00E94280B45
:1007F0009093500380934F030895CF93DF9300D0DD
:100800001F92CDB7DEB749835A836B837C8324E084
:1008100030E0AE014F5F5F4F61E20E943D0A0F90F2
:100820000F900F900F90DF91CF9108950C94F70BDC
:100830008F929F92AF92BF92CF92DF92EF92FF92F0
:100840000F931F93CF93DF936A01FC01ED5EFE4F80
:10085000C081D1817B0100E010E00C151D0561F124
:100860000E94F70B688779878A879B87E881F981DF
:100870000284F385E02DCE01199597FF17C00E94E1
:10088000F70B88849984AA84BB84DC01CB01881986
:100890009909AA09BB098C809D80AE80BF8088150C
:1008A0009905AA05BB0510F3680106C0F7018193FD
:1008B0007F010F5F1F4FD1CFC601DF91CF911F91F5
:1008C0000F91FF90EF90DF90CF90BF90AF909F90EF
:1008D0008F900895EF92FF920F931F93CF93DF9322
:1008E000EC017B018A0188819981009729F02A8196
:1008F0003B8124173507F8F4B8016F5F7F4F0E94E2
:100900005B1B009759F0998388831B830A832C8192
:100910003D81232B81F4FC0110820DC088819981D7
:10092000009711F00E94C31A198218821D821C823E
:100930001B821A8207C01D830C83B70188819981AD
:100940000E94621CCE01DF91CF911F910F91FF9009
:10095000EF900895FC011182108213821282158299
:1009600014826115710551F0FB0101900020E9F737
:100970003197AF01461B570B0C946A040895CF9230
:10098000DF92EF92FF920F931F93CF93DF93CDB738
:10099000DEB76E970FB6F894DEBF0FBECDBF8C01E9
:1009A0007B018EE092E00E94EA0DC7010E94930D48
:1009B0000E94E60DB701CE0143960E94AA0467E3A8
:1009C00072E0CE010D960E94AA0461E472E0CE01AD
:1009D00007960E94AA04BE01635F7F4FCE01439633
:1009E0000E94B603882309F448C22F89388D4989AB
:1009F0005A89BE016D5E7F4FCE0149960E944D0C13
:100A00006AE472E0CE0101960E94AA04BE016F5F03
:100A10007F4FCE0149960E94B603882331F0FF2410
:100A2000F3948D8D9E8D099709F0F12CCE010196DE
:100A30000E94F003FF2009F49EC08D8D9E8D0997C2
:100A400030F0E98DFA8D309711F0808501C080E09B
:100A500091E090934E03833309F45AC0B4F4813388
:100A600069F1823309F053C16091590370915A03BF
:100A7000072E000C880B990B0E947E1C6B017C01D9
:100A800010924E038EE592E029C0853309F462C0CE
:100A90000CF44FC0863309F03AC160916103709144
:100AA0006203072E000C880B990B0E947E1C6B01C1
:100AB0007C0110924E038AE892E010C060915703C7
:100AC00070915803072E000C880B990B0E947E1C16
:100AD0006B017C0110924E0383E592E00E9430107E
:100AE000C701B6010E943210B701A601C8010E94D9
:100AF000FD0361E080E10E94510B81E10E94280B1F
:100B0000892B09F4FEC160E080E10E94510BF9C11C
:100B100060915B0370915C03072E000C880B990BAE
:100B20000E947E1C6B017C0110924E0389E692E0CC
:100B3000D5CF60915D0370915E03072E000C880B8A
:100B4000990B0E947E1C6B017C0110924E0384E77E
:100B500092E0C4CF60915F0370916003072E000C98
:100B6000880B990B0E947E1C6B017C0110924E0336
:100B70008FE792E0B3CF65E972E0CE0101960E9463
:100B8000AA04BE016F5F7F4FCE0149960E94B60353
:100B9000882339F0FF24F3948D8D9E8D079709F0FB
:100BA000F12CCE0101960E94F003FF2009F4B4C09D
:100BB0008D8D9E8D079730F0E98DFA8D309711F06D
:100BC000868101C080E091E090934E03833309F465
:100BD00044C02CF4813361F0823349F198C08533ED
:100BE00009F467C00CF44FC0863309F479C08FC094
:100BF00060915103662391F0062E000C770B605331
:100C00007109072E000C880B990B0E947E1C6B014A
:100C10007C0110924E038CE992E023C1409127049D
:100C2000509128046091290470912A0422C1609196
:100C30005203662399F3062E000C770B605371095B
:100C4000072E000C880B990B0E947E1C6B017C0107
:100C500010924E0385EA92E004C16091530366232B
:100C6000E9F2062E000C770B60537109072E000C79
:100C7000880B990B0E947E1C6B017C0110924E0325
:100C80008EEA92E0EEC060915403662339F2062E9C
:100C9000000C770B60537109072E000C880B990B21
:100CA0000E947E1C6B017C0110924E0387EB92E048
:100CB000D8C060915503662309F4B0CF062E000C0E
:100CC000770B60537109072E000C880B990B0E945B
:100CD0007E1C6B017C0110924E0380EC92E0C1C03F
:100CE00060915603662309F499CF062E000C770B0A
:100CF00060537109072E000C880B990B0E947E1C13
:100D00006B017C0110924E0389EC92E0AAC060E076
:100D100080E10E94510BF2C062ED72E0CE01499673
:100D20000E94D103882359F080E090E00E942F0EAA
:100D30000E94E30F6B017C018EED92E04FC06BEEE1
:100D400072E0CE0149960E94D103882309F455C070
:100D500080E090E00E942F0E0E94EC0E8823B1F1FB
:100D6000809152048B3041F188F18551823070F5C9
:100D700060914C0470E080E090E00E947C1C20E0D8
:100D800030E040E853E40E94DD1C6B017C0180915F
:100D90004D04682F70E080E090E00E947E1C9B0173
:100DA000AC01C701B6010E946F172DEC3CEC4CEC76
:100DB0005DE30E94DD1C07C060914C0470E080E0A0
:100DC00090E00E947C1C6B017C0106C0C12CD12CE0
:100DD00080ECE82E8FE7F82E84EF92E00E9430102E
:100DE000C701B6010E943210A7019601C701B601E2
:100DF0000E94D8188823D9F169C067E173E0CE0159
:100E000049960E94D103882379F08EE394E00E94F2
:100E1000F71020E030E048EC52E40E94DD1C6B014A
:100E20007C018EEF92E01DC068E273E0CE0149962E
:100E30000E94D103882309F461C080E394E00E94FA
:100E4000F71020E030E048E452E40E94DD1C20E08E
:100E500030EC4FE754E40E94DB176B017C0186E025
:100E600093E00E943010C701B6010E943210B70112
:100E7000A601C8010E94FD0344C0BE01695F7F4F07
:100E8000CE0143960E94B603882309F43FC02F8900
:100E9000388D4B855C85BE016D5E7F4FCE014996D6
:100EA0000E944D0C6DE073E0CE0101960E94AA04F1
:100EB000BE016F5F7F4FCE0149960E94B603F82EA8
:100EC000CE0101960E94F003FF2021F0C8010E948C
:100ED000B10A17C06EE173E0CE0101960E94AA0428
:100EE000BE016F5F7F4FCE0149960E94B603F82E78
:100EF000CE0101960E94F003F110E8CFC8010E94D4
:100F0000E60ACE0149960E94F00303C0C8010E9480
:100F1000E60ACE0107960E94F003CE010D960E94CC
:100F2000F003CE0143960E94F0036E960FB6F8943C
:100F3000DEBF0FBECDBFDF91CF911F910F91FF900C
:100F4000EF90DF90CF9008951F920F920FB60F92FF
:100F500011240BB60F922F933F934F935F936F9390
:100F60007F938F939F93AF93BF93EF93FF93E09102
:100F70000E02F0910F021995FF91EF91BF91AF9181
:100F80009F918F917F916F915F914F913F912F91A1
:100F90000F900BBE0F900FBE0F901F9018951F92D1
:100FA0000F920FB60F9211240BB60F922F933F930F
:100FB0004F935F936F937F938F939F93AF93BF9361
:100FC000EF93FF93E0910C02F0910D021995FF91C0
:100FD000EF91BF91AF919F918F917F916F915F91B1
:100FE0004F913F912F910F900BBE0F900FBE0F901E
:100FF0001F9018951F920F920FB60F9211240BB6E7
:101000000F922F933F934F935F936F937F938F93A1
:101010009F93AF93BF93EF93FF93E0910202F09100
:1010200003021995FF91EF91BF91AF919F918F911D
:101030007F916F915F914F913F912F910F900BBED8
:101040000F900FBE0F901F9018951F920F920FB622
:101050000F9211240BB60F922F933F934F935F93F0
:101060006F937F938F939F93AF93BF93EF93FF9370
:10107000E0910002F09101021995FF91EF91BF916B
:10108000AF919F918F917F916F915F914F913F9120
:101090002F910F900BBE0F900FBE0F901F901895C1
:1010A0001F920F920FB60F9211240BB60F922F932F
:1010B0003F934F935F936F937F938F939F93AF93E0
:1010C000BF93EF93FF93E0910A02F0910B02199501
:1010D000FF91EF91BF91AF919F918F917F916F9110
:1010E0005F914F913F912F910F900BBE0F900FBECC
:1010F0000F901F9018951F920F920FB60F92112408
:101100000BB60F922F933F934F935F936F937F9301
:101110008F939F93AF93BF93EF93FF93E091080258
:10112000F09109021995FF91EF91BF91AF919F91B5
:101130008F917F916F915F914F913F912F910F9080
:101140000BBE0F900FBE0F901F9018951F920F921D
:101150000FB60F9211240BB60F922F933F934F931C
:101160005F936F937F938F939F93AF93BF93EF930F
:10117000FF93E0910602F09107021995FF91EF911C
:10118000BF91AF919F918F917F916F915F914F919F
:101190003F912F910F900BBE0F900FBE0F901F909D
:1011A00018951F920F920FB60F9211240BB60F9243
:1011B0002F933F934F935F936F937F938F939F935F
:1011C000AF93BF93EF93FF93E0910402F091050278
:1011D0001995FF91EF91BF91AF919F918F917F9161
:1011E0006F915F914F913F912F910F900BBE0F9098
:1011F0000FBE0F901F9018951F920F920FB60F926F
:1012000011240BB60F922F933F934F935F936F93DD
:101210007F938F939F93AF93BF93EF93FF9384E656
:1012200094E00E94DF02FF91EF91BF91AF919F91F7
:101230008F917F916F915F914F913F912F910F907F
:101240000BBE0F900FBE0F901F9018951F920F921C
:101250000FB60F9211240BB60F922F933F934F931B
:101260005F936F937F938F939F93AF93BF93EF930E
:10127000FF9384E694E00E947102FF91EF91BF9189
:10128000AF919F918F917F916F915F914F913F911E
:101290002F910F900BBE0F900FBE0F901F901895BF
:1012A0001F920F920FB60F9211240BB60F922F932D
:1012B0003F934F935F936F937F938F939F93AF93DE
:1012C000BF93EF93FF938AE893E00E94DF02FF91C0
:1012D000EF91BF91AF919F918F917F916F915F91AE
:1012E0004F913F912F910F900BBE0F900FBE0F901B
:1012F0001F9018951F920F920FB60F9211240BB6E4
:101300000F922F933F934F935F936F937F938F939E
:101310009F93AF93BF93EF93FF938AE893E00E946C
:101320007102FF91EF91BF91AF919F918F917F914A
:101330006F915F914F913F912F910F900BBE0F9046
:101340000FBE0F901F90189590E0FC013197E2318D
:10135000F10508F04EC08827EE58FF4F8F4F0C94D0
:101360005217809180008F7703C0809180008F7D1D
:1013700080938000089580918000877FF9CF84B5A5
:101380008F7702C084B58F7D84BD08958091B000B1
:101390008F7703C08091B0008F7D8093B000089557
:1013A000809190008F7707C0809190008F7D03C05F
:1013B00080919000877F8093900008958091A00095
:1013C0008F7707C08091A0008F7D03C08091A0001F
:1013D000877F8093A0000895809120018F7707C0B8
:1013E000809120018F7D03C080912001877F8093B1
:1013F000200108953FB7F894809186039091870368
:10140000A0918803B091890326B5A89B05C02F3F02
:1014100019F00196A11DB11D3FBFBA2FA92F982F1A
:101420008827820F911DA11DB11DBC01CD0142E095
:10143000660F771F881F991F4A95D1F708950E945C
:10144000441CCF93DF931F92CDB7DEB7DC01ED9143
:10145000FC910280F381E02D41E050E0BE016F5F1E
:101460007F4F1995019719F4898190E002C08FEFA1
:101470009FEF0F90DF91CF910895AF92BF92CF92DF
:10148000DF92EF92FF920F931F93CF93DF9300D0E1
:1014900000D0CDB7DEB77C015A018901DE0111967B
:1014A00085E0FD0111928A95E9F781EB898382E459
:1014B0008A836B832C83FA019A01200F311F80E00D
:1014C000E217F30719F091918927FACF8E839A8159
:1014D000898189279B8189279C8189279D818927EB
:1014E0008D83F70180819181FC012081318145E06C
:1014F00050E0BD01C701F90119956C01D701ED91CB
:10150000FC910190F081E02DA801B501C70119956A
:10151000C80ED91ED701ED91FC910190F081E02D0C
:1015200041E050E0BE016A5F7F4FC7011995C80EC8
:10153000D91E0A5F1F4F81E0C016D10609F080E076
:1015400026960FB6F894DEBF0FBECDBFDF91CF91C8
:101550001F910F91FF90EF90DF90CF90BF90AF90D1
:10156000089520E030E040E050E062E20C943D0A53
:101570008F929F92AF92BF92CF92DF92EF92FF92A3
:101580000F931F934A015B0168017901DC01ED9122
:10159000FC910680F781E02D1995DC01CB018819BB
:1015A0009909AA09BB0921E0C816D906EA06FB0673
:1015B00008F020E0822F1F910F91FF90EF90DF90B5
:1015C000CF90BF90AF909F908F9008958F929F92F1
:1015D000AF92BF92EF92FF920F931F93CF93DF933F
:1015E000EC0184E0E82EF12C81E0E81AF10829F101
:1015F00020E030E040E050E063E2CE010E943D0A8E
:10160000E881F9810680F781E02DCE0119954B0123
:101610005C0108E813E120E030E0B501A401CE014F
:101620000E94B80A8111E0CFCE010E943D118A814B
:10163000882379F38B81823161F7DF91CF911F91FC
:101640000F91FF90EF90BF90AF909F908F90089573
:10165000CF93DF93282F30E0F901EC5CFC4F8491AD
:10166000F901E652FC4FD491F901EC56FC4FC491BC
:10167000CC2391F081110E94A409EC2FF0E0EE0F31
:10168000FF1FE658FC4FA591B491EC91ED2381E04A
:1016900090E021F480E002C080E090E0DF91CF9103
:1016A00008951F93CF93DF93282F30E0F901EC5C6E
:1016B000FC4F8491F901E652FC4FD491F901EC56AC
:1016C000FC4FC491CC23C9F0162F81110E94A409AC
:1016D000EC2FF0E0EE0FFF1FE65EFC4FA591B491FA
:1016E0008FB7F894111105C09C91ED2FE095E92377
:1016F00002C0EC91ED2BEC938FBFDF91CF911F9146
:101700000895CF93DF9390E0FC01E652FC4F2491C3
:10171000FC01EC56FC4F8491882361F190E0880F26
:10172000991FFC01E050FD4FC591D491FC01E65E8C
:10173000FC4FA591B491611109C09FB7F8948881BD
:10174000209582238883EC912E230BC0623061F4B4
:101750009FB7F8943881822F809583238883EC91FA
:101760002E2B2C939FBF06C08FB7F894E8812E2BA9
:1017700028838FBFDF91CF9108958F929F92AF9270
:10178000BF92CF92DF92EF92FF926B017C010E9499
:10179000FA094B015C01C114D104E104F104F1F038
:1017A0000E94FA09DC01CB0188199909AA09BB0931
:1017B000883E9340A105B10570F321E0C21AD1081B
:1017C000E108F10888EE880E83E0981EA11CB11C88
:1017D000C114D104E104F10419F7DDCFFF90EF90BB
:1017E000DF90CF90BF90AF909F908F9008952FB7CC
:1017F000F8946091820370918303809184039091A7
:1018000085032FBF08951F920F920FB60F921124D8
:101810002F933F938F939F93AF93BF9380918203B6
:1018200090918303A0918403B0918503309181034B
:1018300023E0230F2D3720F40196A11DB11D05C013
:1018400026E8230F0296A11DB11D209381038093EA
:10185000820390938303A0938403B09385038091C4
:10186000860390918703A0918803B0918903019624
:10187000A11DB11D8093860390938703A0938803D5
:10188000B0938903BF91AF919F918F913F912F9119
:101890000F900FBE0F901F901895BF92CF92DF92BE
:1018A000EF92FF920F931F93CF93DF937C016B0115
:1018B000EA0189012417350720F48D2FE901042F4F
:1018C000182F60E373E0C7010E94AA04D6011496A2
:1018D0008D919C911597C817D907C8F58017910766
:1018E00008F48C01D601ED91FC911197E00FF11FE6
:1018F000B08010824D915C91BA016C0F7D1F611513
:10190000710561F0FB0101900020E9F73197AF010B
:10191000461B570BC7010E946A0413C0F701808160
:101920009181009711F00E94C31AD70111961C9261
:101930001E9215961C921E92149713961C921E923C
:101940001297D601ED91FC91E00FF11FB082C70113
:10195000DF91CF911F910F91FF90EF90DF90CF908B
:10196000BF9008958F929F92AF92BF92CF92DF92D5
:10197000EF92FF92CF93DF93A0915304882311F04D
:101980003A2F01C030E08091540490E0880F991FF5
:1019900086589C4FC0905904D0905A04E0905B0444
:1019A000F0905C0440E050E0BA01FC01C591D49194
:1019B00028812A2323130FC04A015B012FEF821ACB
:1019C000920AA20AB20A4C155D056E057F0538F42D
:1019D000B501A401EACF342F252FCB0104C030E09C
:1019E00020E080E090E0632F722FDF91CF91FF9095
:1019F000EF90DF90CF90BF90AF909F908F90089521
:101A00000F931F93CF93DF93D82FC8E00BE410E020
:101A1000D7FF02C061E001C060E080912C040E9409
:101A2000510B60E080912B040E94510BC80101977B
:101A3000F1F761E080912B040E94510BC8010197DE
:101A4000F1F7DD0FC15021F7DF91CF911F910F9179
:101A500008952F923F924F925F926F927F928F9252
:101A60009F92AF92BF92CF92DF92EF92FF920F932D
:101A70001F93CF93DF93EC012A013B0148015901E9
:101A8000198218821B821A821D821C821E821F826A
:101A9000188619861A861B861C861D86A901980140
:101AA000C301B2010E94DD1C0E9454186B017C012D
:101AB0006115710549F0660F771F80E090E00E9484
:101AC0005B1B1C01892BD1F0398228821D821C826C
:101AD000DB82CA824E825F82688679868A869B868E
:101AE000AC86BD86F10180E090E02A813B818217BF
:101AF000930720F4119211920196F7CFDF91CF91C5
:101B00001F910F91FF90EF90DF90CF90BF90AF901B
:101B10009F908F907F906F905F904F903F902F900D
:101B200008950C94E60A009769F0FC0101900020EA
:101B3000E9F73197AF01481B590BBC018AE893E0E4
:101B40000C94460280E090E008958F929F92AF92AD
:101B5000BF920F931F93CF93DF93CDB7DEB7A197BB
:101B60000FB6F894DEBF0FBECDBF19A2423008F405
:101B70004AE08E010F5D1F4F842E912CA12CB12CB9
:101B8000A50194010E943017E62FB901CA01015046
:101B90001109EA3014F4E05D01C0E95CD801EC936E
:101BA000232B242B252B61F7C8010E94930DA196AE
:101BB0000FB6F894DEBF0FBECDBFDF91CF911F915E
:101BC0000F91BF90AF909F908F9008958EE293E019
:101BD0000C94930D0F931F93CF93DF938C01C0E070
:101BE000D0E0F801EC0FFD1F6491662371F0E091E5
:101BF0008A03F0918B030190F081E02D8AE893E055
:101C00001995892B11F02196ECCFCE01DF91CF9160
:101C10001F910F910895CF93DF930E94EA0DEC017D
:101C20000E94E60D8C0F9D1FDF91CF91089580914A
:101C30007B00877F80937B0081E480937C00809190
:101C40007A00806480937A0080917A0086FDFCCFD0
:101C5000809178002091790090E0922B0895CF93A5
:101C6000DF93EC0162E070E00E941C17019711F411
:101C700061E001C060E080915E040E94510BCE01E2
:101C800064E070E00E941C17029714F061E001C04C
:101C900060E0809160040E94510B249714F061E091
:101CA00001C060E080916204DF91CF910C94510BF0
:101CB000E0918A03F0918B030190F081E02D682F71
:101CC0008AE893E019946F927F928F929F92AF92DD
:101CD000BF92CF92DF92EF92FF920F931F93CF9319
:101CE000DF93982E862E742E622E80E00E94000DC7
:101CF00080E00E94000D80E00E94000D80E00E94C4
:101D0000000D83E0989E8001112478018FEFE81A7E
:101D1000F80A680182E0C80ED11CC0E080912D0451
:101D2000C81708F03FC0C91115C0E0912E04F0910A
:101D30002F04E00FF11F8082E0912E04F0912F0418
:101D4000EE0DFF1D7082E0912E04F0912F04EC0D3A
:101D5000FD1D6082E0912E04F0912F0483E0C89F66
:101D6000E00DF11D1124A280B180D081A7FC02C03A
:101D700080EE01C080ECA6FE8061B7FE8860B6FEF2
:101D80008460D7FF8260D6FF81600E94000D8A2D9B
:101D90000E94000D8B2D0E94000D8D2F0E94000DC2
:101DA000CF5FBCCF80E00E94000D80E00E94000D5C
:101DB00080E00E94000D80E0DF91CF911F910F9194
:101DC000FF90EF90DF90CF90BF90AF909F908F905B
:101DD0007F906F900C94000DCF92DF92EF92FF9264
:101DE0000F931F93CF93DF93CDB7DEB7C054D1408D
:101DF0000FB6F894DEBF0FBECDBF0E94F70B009167
:101E000055041091560420915704309158046B01E9
:101E10007C01C01AD10AE20AF30A40EDC41647E079
:101E2000D406E104F10418F480915D04BCC0609311
:101E3000550470935604809357049093580410925D
:101E4000500410924F0410924E0410924D041092C0
:101E50004C0461E0809151040E94510B6AEF70E0E4
:101E600080E090E00E94BD0B61E0809151040E94EF
:101E7000810B60E0809151040E94510B64E170E09D
:101E800080E090E00E94BD0BF89461E080915104E5
:101E90000E94510B8BE990E00197F1F762E080918D
:101EA00051040E94810B83E290E00197F1F780E0FA
:101EB0000E94B20C672B682B692B21F410925D04F1
:101EC00078943EC081E00E94B20C672B682B692B8E
:101ED000A9F38E010F5F1F4F6E018FEBC81A8EEFB3
:101EE000D80A780180E00E94B20CF7016083718308
:101EF0008283938381E00E94B20CF701648375832F
:101F000086839783F8E0EF0EF11CEC14FD0451F783
:101F1000789420E030E0F801408151816281738142
:101F2000C480D580E680F7804115510561057105B3
:101F300029F0C114D104E104F10421F410925D04EC
:101F400080E031C0F90183E0F595E7958A95E1F7E6
:101F5000E45BFB4F8081880F4C155D056E057F05A6
:101F600008F4816080832F5F3F4F085F1F4F283246
:101F7000310589F62091500430E040914C04809165
:101F80004D0490E0840F911D40914E04840F911DEB
:101F900040914F04840F911D99272817390771F636
:101FA00081E080935D04C05CDE4F0FB6F894DEBF25
:101FB0000FBECDBFDF91CF911F910F91FF90EF909A
:101FC000DF90CF900895CF92DF92EF92FF92CF9360
:101FD0000E94EC0E8823D1F1809152048B3029F0BD
:101FE000A8F18551823048F031C060914E0470E014
:101FF00080E090E00E947C1C2DC0C0914E046C2FAC
:102000006F7770E080E090E00E947E1C20E030E07E
:1020100040E853E40E94DD1C6B017C0180914F0479
:10202000682F70E080E090E00E947E1C9B01AC0174
:10203000C701B6010E946F172DEC3CEC4CEC5DE340
:102040000E94DD1CC7FF06C0905804C060E070E02D
:1020500080EC9FE7CF91FF90EF90DF90CF900895B5
:102060000C94930D4F925F926F927F928F929F92FA
:10207000AF92BF92CF92DF92EF92FF926B017C0101
:102080009B01AC010E94D818882319F081E393E0EA
:102090001AC046015701E894B7F82FEF3FEF4FE71A
:1020A0005FE7C501B4010E94D818811110C02FEF5D
:1020B0003FEF4FE75FE7C501B4010E94771C181698
:1020C00034F485E393E00E94930D7C017FC02FEFF1
:1020D0003FEF4FE75FE4C701B6010E94831818166F
:1020E0001CF489E393E0EFCF2FEF3FEF4FE75FEC76
:1020F000C701B6010E94771C87FDF3CF20E030E0D6
:10210000A901C701B6010E94771C87FF09C08DE2B3
:102110000E94580E5C01F7FAF094F7F8F09402C0B0
:10212000A12CB12C2AE037ED43EA5BE3C701B601ED
:102130000E946F172B013C010E9454186B017C0117
:102140000E947C1C9B01AC01C301B2010E946E176E
:102150002B013C014AE0C701B6010E94A50D7C019C
:10216000EA0CFB1C8EE20E94580EE80EF91E20E0DD
:1021700030E040E251E4C301B2010E94DD1C2B01BA
:102180003C010E9454184B01A12CB12C4AE0C5011E
:10219000B4010E94A50DE80EF91EC501B4010E940C
:1021A0007C1C9B01AC01C301B2010E946E1720E0B0
:1021B00030E040E251E40E94DD1C0E94541880E0AF
:1021C00090E04AE00E94A50DE80EF91E0E94E60D7F
:1021D0008E0D9F1DFF90EF90DF90CF90BF90AF903E
:1021E0009F908F907F906F905F904F900895AF92E7
:1021F000BF92CF92DF92EF92FF920F931F93CF93F4
:10220000DF93FC01008111810115110541F1A280CC
:10221000B380C0E0D0E0C12CD12C7601CA15DB051B
:1022200091F0F801619171918F0180E090E00E943E
:102230007C1C9B01AC01C701B6010E946F176B01AA
:102240007C012196EBCFBE0180E090E00E947C1CD7
:102250009B01AC01C701B6010E94DB1703C060E01F
:1022600070E0CB01DF91CF911F910F91FF90EF9024
:10227000DF90CF90BF90AF9008958F929F92AF92D2
:10228000BF92CF92DF92EF92FF920F931F93CF9363
:10229000DF9300D0CDB7DEB77C01D701ED91FC9183
:1022A0000480F581E02DC7011995059708F47CC0DD
:1022B000C7010E94210A813B910579F7C7010E945D
:1022C000210A8234910549F7D701ED91FC910280F2
:1022D000F381E02D43E050E0BE016F5F7F4FC70107
:1022E0001995039709F060C029818A81322F382718
:1022F00093EF93273B81931357C0F701238390E01B
:1023000095838483892B09F44CC00190F081E02DE2
:102310000680F781E02DC70119954B015C01D701BB
:10232000ED91FC910480F581E02DC7011995F7012D
:10233000448155814817590760F000EA1FE020E00A
:1023400030E0B501A401C7010E94B80A882339F31F
:102350002BC087010A5F1F4F0190F081E02D0280A2
:10236000F381E02DB801C7011995D70114962D917D
:102370003C91159782179307A1F4C7010E94210A87
:10238000F801D70114962D913C911597200F311F1C
:1023900090E0E217F30719F041919427FACF9813D0
:1023A00003C081E0F70182836701F2EFCF1AFEEFED
:1023B000DF0AD6014D915D916D917C9100ED17E0A2
:1023C00020E030E0C7010E94B80A8823A9F020E08D
:1023D00030E040E050E060E0C7010E943D0AD701D4
:1023E000ED91FC910680F781E02DC7011995F6016A
:1023F0006083718382839383D70112968C911297A5
:102400008701065F1E4F8823E9F013968C9113977E
:10241000811118C0ED91FC910680F781E02DC70174
:102420001995F8016083718382839383D701129693
:102430001C928DE393E00E94301081E0F701E75F8A
:10244000FE4F8083F801408151816281738100E4F5
:102450001FE120E030E0C7010E94B80A882321F084
:10246000F701E75FFE4F108287010E5E1E4FD80115
:102470008C91811128C0F7018281882321F1838109
:10248000803109F512820480F581E02DEE0DFF1DEB
:102490008581811118C020E030E040E050E061E12A
:1024A000C7010E943D0A81E0D8018C93D701ED91CC
:1024B000FC91B7016A5F7F4F0084F185E02DC70171
:1024C0001995F80110820F900F900F90DF91CF9126
:1024D0001F910F91FF90EF90DF90CF90BF90AF9042
:1024E0009F908F90089580912E0490912F040C94CA
:1024F000C31ACF93DF93CDB7DEB729970FB6F89401
:10250000DEBF0FBECDBF789484B5826084BD84B534
:10251000816084BD85B5826085BD85B5816085BDDE
:1025200080916E00816080936E0010928100809196
:10253000810082608093810080918100816080931E
:102540008100809180008160809380008091B10043
:1025500084608093B1008091B00081608093B0006E
:1025600080919100826080939100809191008160C0
:102570008093910080919000816080939000809181
:10258000A10082608093A1008091A100816080936E
:10259000A1008091A00081608093A0008091210122
:1025A00082608093210180912101816080932101CB
:1025B0008091200181608093200180917A00846065
:1025C00080937A0080917A00826080937A00809173
:1025D0007A00816080937A0080917A00806880938D
:1025E0007A001092C100E0919A03F0919B0382E07F
:1025F0008083E0919603F09197031082E091980315
:10260000F09199038FEC80831092A203E0919E03D6
:10261000F0919F0386E08083E0919C03F0919D03FD
:10262000808180618083E0919C03F0919D03808193
:1026300088608083E0919C03F0919D038081806895
:102640008083E0919C03F0919D0380818F7D808346
:102650000E94E60D8AE992E00E940B0E8DE692E060
:102660000E940B0E80E492E00E940B0E8AE893E039
:102670000E94470361E080912B040E94810B61E07E
:1026800080912C040E94810B10E080912D0418177A
:1026900040F420E040E060E0812F0E94630E1F5F65
:1026A000F4CFE0911406F0911506A089B18982E07B
:1026B0008C93A485B5851C92A685B78588E08C93FC
:1026C000108EA489B58986E08C93A289B3898C91F8
:1026D00080618C93A289B3898C9188608C93A28944
:1026E000B3898C9180688C930288F389E02D808176
:1026F0008F7D808360ED77E080E090E00E94BD0BED
:1027000062E0809151040E94810B80E398EFAFEF6B
:10271000BFEF8093550490935604A0935704B09351
:10272000580460E082E00E94810B85EF93E0909373
:1027300001028093000280916A008C7F8160809307
:102740006A00EC9A10926F03109264031092630374
:102750001092520310925303109254031092550397
:102760001092560383E38093510361E084E00E945A
:10277000810B61E085E00E94810B61E086E00E94B0
:10278000810B61E080E10E94810B60E087E30E94A1
:10279000810B60E087E30E94810B8AE893E00E944E
:1027A00047038FE192E00E940B0EBAE02B2E312CF2
:1027B0008E01065F1F4F81E095E00E943D1185ED7F
:1027C00092E00E940B0E81E090E00E942F0EA2E3A7
:1027D000EA2EF12C812C912C54010E94170EBC0181
:1027E000990F880B990B0E947E1C20E030E040EA94
:1027F00050E40E94DD1C20E030EC4FE754E40E94DE
:10280000DB1721EC3AEC41E95FEB0E94881828EFD6
:1028100033E54AEC51E40E94DD1C9B01AC01C5018B
:10282000B4010E946F174B015C0181E0E81AF108C6
:10283000A1F620E030E048E452E4C501B4010E9472
:10284000DB176B017C0120E030E046E153E40E949D
:102850008318181634F4C12CD12CF6E1EF2EF3E4D2
:10286000FF2EC701B6010E945418D62E609357035D
:102870007093580380E090E00E942F0E0E94E30FB7
:102880002B013C010E944D187B01072E000C880B88
:10289000990B0E947E1C9B01AC01C301B2010E94F6
:1028A0006E1720E030E040E05FE30E94831887FD70
:1028B00003C0EFEFEE1AFE0A81E090E00E942F0EB7
:1028C000EAE08E2E912CA12CB12C0E94170EA80E9E
:1028D000B91EF1E08F1A9108C1F7C501B1010E943C
:1028E0001C17072E000C880B990B0E947E1C4B01B5
:1028F0005C01B70180E090E00E947C1C22E430E69D
:1029000045E65CE30E94DD1C2EEA37E441EA5FE322
:102910000E946F1720E030E045E553E40E94DD1C83
:102920009B01AC01C501B4010E948318209163038F
:102930003091640387FF07C02E3F8FEF380764F0A4
:102940002150310905C023303105B4F72F5F3F4FC7
:102950003093640320936303C0906403C094CC1C41
:10296000CC24CC1C80914F03909150038F3F910554
:1029700021F0892B21F083E003C081E001C082E0D7
:10298000509159035F5F40915B034F5F30915D034E
:102990003F5F20915F032F5F909161039F5FD3940E
:1029A000D9825A834B833C832D839E8391E09C0D77
:1029B0009F838F5F8887EFEFE987FE01319678E785
:1029C000E72E73E0F72ED70181918D93E017F10781
:1029D000D9F780916F03811113C068E773E08FE628
:1029E00093E00E94621C88EC92E00E940B0E8091A2
:1029F0005703909158038734910508F445C059C096
:102A0000AFE6B3E0E8E7F3E08D91803574F0208124
:102A10002135E4F4082E000C990B0E97022E000CC1
:102A2000330B2817390794F4D8CF082E000C990BD4
:102A30002081022E000C330BAC014E50510924179B
:102A400035075CF20E96821793073CF2319683E0CD
:102A5000ED37F807C9F690917E03809175039813BE
:102A6000BCCF90917F03917897FF03C091509E6FE8
:102A70009F5F80917603817887FF03C081508E6FBE
:102A80008F5F9813AACF1EC020E0C11009C04FEF7E
:102A900062E380E00E94630E81E38093510312C0E1
:102AA00040E06FEF80E00E94630EE2E3E0935103A9
:102AB00009C02FEF40E060E080E00E94630EF0E389
:102AC000F09351030E94E60DF70181917F010E946E
:102AD000580EF1E8EF16F3E0FF06B1F70E94E60D9D
:102AE000C0904404D0904504E0904604F090470420
:102AF00020E030E0A901C701B6010E94771C8823BD
:102B000059F0A701960160E070E080E89FE30E9421
:102B1000DB174B015C0106C0812C912C60ECA62ECA
:102B20006FE7B62E0E94F70B6B017C0180911606B1
:102B300090911706A0911806B09119062601370149
:102B4000481A590A6A0A7B0A20E030E04AE754E44E
:102B5000C501B4010E94DD1C0E9454184616570698
:102B60006806790608F463C0C0921606D09217066C
:102B7000E0921806F092190682E00E94280B20913C
:102B80003E0430913F042115310511F1609142045A
:102B900070914304409140045091410464177507BB
:102BA00020F01092430410924204E0914204F0910C
:102BB0004304EE0FFF1FE20FF31F91838083809188
:102BC00042049091430401969093430480934204FD
:102BD00080E090E00E942F0E0E94170E209130049A
:102BE000309131042115310511F160913404709157
:102BF000350440913204509133046417750720F076
:102C00001092350410923404E0913404F0913504AC
:102C1000EE0FFF1FE20FF31F918380838091340436
:102C200090913504019690933504809334048091FB
:102C30000A06882319F086EF92E002C089EE92E03E
:102C40000E940B0E60E080E10E94510B0E9469031C
:102C5000B2CD0F931F93CF93DF93C4E6D4E01B82D2
:102C60001A8248EE53E060E070E04C835D836E832F
:102C70007F838AE192E0998388832DEC30E03D8761
:102C80002C872CEC30E03F872E8728EC30E0398B06
:102C9000288B29EC30E03B8B2A8B2AEC30E03D8BF3
:102CA0002C8B2EEC30E03F8B2E8B198E1A8E1B8EC8
:102CB0001C8EEAE8F3E01382128244835583668314
:102CC00077839183808385EC90E09587848784EC7B
:102CD00090E09787868780EC90E0918B808B81ECE9
:102CE00090E0938B828B82EC90E0958B848B86ECCA
:102CF00090E0978B868B118E128E138E148EEEE5DC
:102D0000F4E084E090E09183808385E090E0938319
:102D1000828386E090E09583848360E084E00E9473
:102D2000510B60E085E00E94510B60E086E00E945C
:102D3000510BACE4B4E086E315968C93159786E1CD
:102D400016968C931697E0E1F4E0E4911796EC93D5
:102D50001797EAECF3E0E4911896EC93189740E8A3
:102D60005EE360E070E01D964D935D936D937C9300
:102D7000509700E010E020EF31E440E050E060E8E0
:102D800070E48EE394E00E94290D00E010E020EF53
:102D900031E440E050E060E870E480E394E00E94B9
:102DA000290D0BE214E087E0F801808388E081833D
:102DB00081E0828361E070E083E090E00E94121A7B
:102DC000F8019483838380E090E0A0E4B0E48093F2
:102DD000270490932804A0932904B0932A04E1E0E7
:102DE000F5E010920F061092100610921106109244
:102DF000120610920B0610920C0610920D061092FD
:102E00000E0610920A0615821482109213068DE2A5
:102E100092E091838083D0931506C093140610929C
:102E20001606109217061092180610921906DF91D6
:102E3000CF911F910F91089597FB072E16F40094E0
:102E400007D077FD09D00E945A1707FC05D03EF441
:102E5000909581959F4F0895709561957F4F089546
:102E6000A1E21A2EAA1BBB1BFD010DC0AA1FBB1F8E
:102E7000EE1FFF1FA217B307E407F50720F0A21B00
:102E8000B30BE40BF50B661F771F881F991F1A946D
:102E900069F760957095809590959B01AC01BD0197
:102EA000CF010895EE0FFF1F881F8BBF0790F6918B
:102EB000E02D1994AA1BBB1B51E107C0AA1FBB1F21
:102EC000A617B70710F0A61BB70B881F991F5A95B6
:102ED000A9F780959095BC01CD0108955058BB2766
:102EE000AA270E9486170C94611D0E94531D38F07A
:102EF0000E945A1D20F039F49F3F19F426F40C94D7
:102F0000501D0EF4E095E7FB0C944A1DE92F0E943A
:102F1000721D58F3BA17620773078407950720F0EC
:102F200079F4A6F50C94941D0EF4E0950B2EBA2FAF
:102F3000A02D0B01B90190010C01CA01A0011124BF
:102F4000FF27591B99F0593F50F4503E68F11A166B
:102F5000F040A22F232F342F4427585FF3CF4695FC
:102F600037952795A795F0405395C9F77EF41F161E
:102F7000BA0B620B730B840BBAF09150A1F0FF0FE8
:102F8000BB1F661F771F881FC2F70EC0BA0F621FD4
:102F9000731F841F48F4879577956795B795F795C4
:102FA0009E3F08F0B0CF9395880F08F09927EE0F59
:102FB0009795879508950E94EF170C94611D0E94C4
:102FC0005A1D58F00E94531D40F029F45F3F29F02C
:102FD0000C944A1D51110C94951D0C94501D0E9487
:102FE000721D68F39923B1F3552391F3951B550B8B
:102FF000BB27AA2762177307840738F09F5F5F4FCC
:10300000220F331F441FAA1FA9F335D00E2E3AF00A
:10301000E0E832D091505040E695001CCAF72BD022
:10302000FE2F29D0660F771F881FBB1F2617370773
:103030004807AB07B0E809F0BB0B802DBF01FF27A5
:1030400093585F4F3AF09E3F510578F00C944A1D1B
:103050000C94951D5F3FE4F3983ED4F386957795E5
:103060006795B795F7959F5FC9F7880F911D96955E
:10307000879597F90895E1E0660F771F881FBB1FBA
:10308000621773078407BA0720F0621B730B840B67
:10309000BA0BEE1F88F7E09508950E9454186894C3
:1030A000B1110C94951D08950E947A1D88F09F57C8
:1030B00098F0B92F9927B751B0F0E1F0660F771F5C
:1030C000881F991F1AF0BA95C9F714C0B13091F052
:1030D0000E94941DB1E008950C94941D672F782FE1
:1030E0008827B85F39F0B93FCCF386957795679517
:1030F000B395D9F73EF490958095709561957F4F83
:103100008F4F9F4F08950E94B91C08F48FEF0895C8
:10311000FA01EE0FFF1F309621053105A1F161156F
:10312000710561F48038BFE39B0749F168949038DA
:10313000810561F08038BFEF9B0741F099234AF584
:10314000FF3FE1053105210519F1E8940894E79561
:10315000D901AA2329F4AB2FBE2FF85FD0F310C0FA
:10316000FF5F70F4A695E0F7F73950F019F0FF3AD9
:1031700038F49F779F930DD00F9007FC90580895D7
:1031800046F00C94501D60E070E080E89FE30895E5
:103190004FE79F775F934F933F932F930E94881938
:1031A0002F913F914F915F910E94DD1C0C94E51887
:1031B0000E94B91C880B990B089529F416F00C9401
:1031C0004A1D0C94941D0C94501D0E947A1DA8F366
:1031D0009638A0F707F80F92E8942BE33AEA48EB09
:1031E0005FE70E94F31C0F920F920F924DB75EB7EC
:1031F0000F920E94D019E8E0F1E00E9417194F9158
:103200005F91EF91FF91E595EE1FFF1F49F0FE578B
:10321000E0684427EE0F441FFA95E1F74195550BFE
:103220000E944A190F9007FE0C943E190895DF93EF
:10323000CF931F930F93FF92EF92DF927B018C014C
:10324000689406C0DA2EEF010E94F01CFE01E8949B
:10325000A5912591359145915591A6F3EF010E94D5
:103260008617FE019701A801DA9469F7DF90EF90C5
:10327000FF900F911F91CF91DF9108959B01AC01B9
:1032800060E070E080E89FE30C94DB170C944A1D2B
:103290000C94041A0E947A1DD8F39923C9F3940F51
:1032A000511DA3F39150504094F059F0882332F00F
:1032B000660F771F881F91505040C1F79E3F510500
:1032C0002CF7880F911D9695879597F908955F3F84
:1032D000ACF0983E9CF0BB27869577956795B7959F
:1032E00008F4B1609395C1F7BB0F58F711F460FF74
:1032F000E8CF6F5F7F4F8F4F9F4FE3CF0C94951DAB
:1033000016F00C94041A0C94501D68940C944A1DE9
:103310000E947A1DA8F39923C1F3AEF3DF93CF93F4
:103320001F930F93FF92C92FDD2788232AF021973F
:10333000660F771F881FDAF720E030E040E85FEB88
:103340009FE3883920F0803E38F021968F770E94E5
:103350006F17E0E3F1E004C00E946F17EDE5F1E0C4
:103360000E9417198B01BE01EC01FB2E6F577109EA
:103370007595771F880B990B0E947E1C28E132E718
:1033800041E35FE30E94F01CAF2D9801AE01FF9076
:103390000F911F91CF91DF910E9486170C94611DB0
:1033A000FA01DC01AA0FBB1F9B01AC01BF5728F437
:1033B000222733274427507820C0B75190F4AB2FF1
:1033C0000024469537952795011CA395D2F300203C
:1033D00071F0220F331F441FB395DAF30ED00C9413
:1033E0006E1761307105A0E88A07B94630F49B0179
:1033F000AC016627772788279078309621F02083C4
:1034000031834283538308959F3F31F0915020F4DC
:10341000879577956795B795880F911D96958795B0
:1034200097F908950F931F93CF93DF93869F8001A1
:10343000879F100D969F100D1124C8010E942E1A0F
:10344000EC01009729F0A80160E070E00E94521C96
:10345000CE01DF91CF911F910F910895CF93DF930C
:103460008230910510F482E090E0E0911C06F0912A
:103470001D0620E030E0C0E0D0E0309711F140813F
:10348000518148175907C0F04817590761F48281E4
:103490009381209719F09B838A832BC090931D06FC
:1034A00080931C0626C02115310519F042175307D9
:1034B00018F49A01BE01DF01EF010280F381E02DD3
:1034C000DCCF2115310509F1281B390B24303105DA
:1034D00090F412968D919C9113976115710521F0CE
:1034E000FB019383828304C090931D0680931C0686
:1034F000FD01329644C0FD01E20FF31F81939193C9
:10350000225031092D933C933AC020911A063091F4
:103510001B06232B41F420911202309113023093A9
:103520001B0620931A0620911002309111022115DA
:10353000310541F42DB73EB7409114025091150268
:10354000241B350BE0911A06F0911B06E217F307D6
:10355000A0F42E1B3F0B2817390778F0AC014E5F03
:103560005F4F2417350748F04E0F5F1F50931B061F
:1035700040931A068193919302C0E0E0F0E0CF01FE
:10358000DF91CF9108950F931F93CF93DF9300970F
:1035900009F48CC0FC0132971382128200911C0640
:1035A00010911D060115110581F420813181820FD2
:1035B000931F20911A0630911B062817390779F5B9
:1035C000F0931B06E0931A0671C0D80140E050E06A
:1035D000AE17BF0750F412962D913C911397AD0191
:1035E0002115310509F1D901F3CF9D01DA013383AA
:1035F000228360817181860F971F8217930769F478
:10360000EC0128813981260F371F2E5F3F4F318310
:1036100020838A819B8193838283452B29F4F093B5
:103620001D06E0931C0642C01396FC93EE9312977E
:10363000ED01499159919E01240F351FE217F307BF
:1036400071F480819181840F951F029611969C934D
:103650008E938281938113969C938E931297E0E0D0
:10366000F0E0D80112968D919C911397009719F074
:10367000F8018C01F6CF8D919C9198012E5F3F4F00
:10368000820F931F20911A0630911B0628173907C5
:1036900069F4309729F410921D0610921C0602C09E
:1036A0001382128210931B0600931A06DF91CF91AA
:1036B0001F910F9108956F927F928F929F92AF9278
:1036C000BF92CF92DF92EF92FF920F931F93CF930F
:1036D000DF93EC01009789F4CB01DF91CF911F912B
:1036E0000F91FF90EF90DF90CF90BF90AF909F90A1
:1036F0008F907F906F900C942E1AFC01E60FF71FAD
:103700009C0122503109E217F30708F4ACC0D9013B
:103710000D911C91119706171707B0F00530110590
:1037200008F49FC0C80104978617970708F499C04A
:1037300002501109061B170B019311936D937C9393
:10374000CF010E94C31A8DC05B01A01AB10A4C01BF
:10375000800E911EA0911C06B0911D0640E050E025
:10376000E12CF12C109709F44AC0A815B905D1F540
:103770006D907C901197630182E0C80ED11CCA1431
:10378000DB0480F1A3014A195B096A0182E0C80EDB
:10379000D11C1296BC9012971396AC91B5E0CB1643
:1037A000D10440F0B282A38351834083D9016D9349
:1037B0007C930AC00E5F1F4FC301800F911FF90158
:1037C00091838083EB2DFA2FE114F10431F0D701BE
:1037D0001396FC93EE93129744C0F0931D06E0936A
:1037E0001C063FC08D919C9111974817590708F40A
:1037F000AC017D0112960D90BC91A02DB3CF8091AC
:103800001A0690911B0688159905E1F4461757078B
:10381000C8F48091100290911102009741F48DB785
:103820009EB74091140250911502841B950BE81726
:10383000F907C8F4F0931B06E0931A06F9017183A7
:1038400060830FC0CB010E942E1A7C01009759F0B3
:10385000A801BE010E94491CCE010E94C31AC701E3
:1038600004C0CE0102C080E090E0DF91CF911F91B3
:103870000F91FF90EF90DF90CF90BF90AF909F900F
:103880008F907F906F90089581E090E0F8940C9471
:103890009B1DFB01DC0102C001900D924150504084
:1038A000D8F70895DC0101C06D9341505040E0F716
:1038B0000895FB01DC018D91019080190110D9F36D
:1038C000990B0895FB01DC0101900D920020E1F7B6
:1038D0000895FB01DC014150504030F08D91019082
:1038E000801919F40020B9F7881B990B08950E94DC
:1038F000B91C08F481E00895E89409C097FB3EF4F0
:1039000090958095709561957F4F8F4F9F4F99232C
:10391000A9F0F92F96E9BB279395F69587957795AA
:103920006795B795F111F8CFFAF4BB0F11F460FF6A
:103930001BC06F5F7F4F8F4F9F4F16C0882311F0C2
:1039400096E911C0772321F09EE8872F762F05C0D6
:10395000662371F096E8862F70E060E02AF09A9571
:10396000660F771F881FDAF7880F9695879597F966
:103970000895990F0008550FAA0BE0E8FEEF161600
:103980001706E807F907C0F012161306E407F50753
:1039900098F0621B730B840B950B39F40A2661F0C7
:1039A000232B242B252B21F408950A2609F4A1406A
:1039B000A6958FEF811D811D08950E94F01C0C9427
:1039C000611D0E94531D38F00E945A1D20F095235E
:1039D00011F00C944A1D0C94501D11240C94951D4B
:1039E0000E94721D70F3959FC1F3950F50E0551F13
:1039F000629FF001729FBB27F00DB11D639FAA2744
:103A0000F00DB11DAA1F649F6627B00DA11D661F92
:103A1000829F2227B00DA11D621F739FB00DA11DB3
:103A2000621F839FA00D611D221F749F3327A00D6D
:103A3000611D231F849F600D211D822F762F6A2F09
:103A400011249F5750409AF0F1F088234AF0EE0F6E
:103A5000FF1FBB1F661F771F881F91505040A9F79B
:103A60009E3F510580F00C944A1D0C94951D5F3FBC
:103A7000E4F3983ED4F3869577956795B795F795D7
:103A8000E7959F5FC1F7FE2B880F911D969587954F
:103A900097F9089597F99F6780E870E060E00895CE
:103AA0009FEF80EC089500240A9416161706180656
:103AB0000906089500240A94121613061406050632
:103AC0000895092E0394000C11F4882352F0BB0FC3
:103AD00040F4BF2B11F460FF04C06F5F7F4F8F4F26
:103AE0009F4F089557FD9058440F551F59F05F3F61
:103AF00071F04795880F97FB991F61F09F3F79F010
:103B000087950895121613061406551FF2CF469591
:103B1000F1DF08C0161617061806991FF1CF869513
:103B20007105610508940895E894BB2766277727F7
:103B3000CB0197F9089512E0C1E1D2E000E006C0A0
:103B4000802FFE010E9452172196011DC231D1071C
:0A3B500080E00807A9F7F894FFCF02
:103B5A004502450245024502450245024502450223
:103B6A0000001E06800000000000000346028E02CC
:103B7A004703BF029D02B1023300000000AA0318E6
:103B8A00049E031604BF0473656E736F72733A3A28
:103B9A0000636F6E6669673A3A0064697374616EAE
:103BAA0063650064697374616E6365313A006469C0
:103BBA007374616E6365323A0064697374616E632B
:103BCA0065333A0064697374616E6365343A0064FC
:103BDA00697374616E6365353A0064697374616E02
:103BEA006365363A00737461747573007374617433
:103BFA007573313A00737461747573323A00737471
:103C0A0061747573333A00737461747573343A006E
:103C1A00737461747573353A0073746174757336AD
:103C2A003A0074656D7065726174757265005465E9
:103C3A006D70657261747572653A0068756D696454
:103C4A006974790048756D69646974793A004D6FD1
:103C5A0074696F6E3A00536F756E643A00726561EB
:103C6A0064696E67733A3A6D6F74696F6E00726554
:103C7A006164696E67733A3A736F756E64000D0A10
:103C8A00006E616E00696E66006F76660070616331
:0E3C9A006B657420686561727462206F6B0048
:00000001FF
